{
  "_format": "hh-sol-artifact-1",
  "contractName": "BasicGameItems",
  "sourceName": "contracts/BasicGameItems.sol",
  "abi": [
    {
      "inputs": [],
      "stateMutability": "nonpayable",
      "type": "constructor"
    },
    {
      "anonymous": false,
      "inputs": [
        {
          "indexed": true,
          "internalType": "address",
          "name": "account",
          "type": "address"
        },
        {
          "indexed": true,
          "internalType": "address",
          "name": "operator",
          "type": "address"
        },
        {
          "indexed": false,
          "internalType": "bool",
          "name": "approved",
          "type": "bool"
        }
      ],
      "name": "ApprovalForAll",
      "type": "event"
    },
    {
      "anonymous": false,
      "inputs": [
        {
          "indexed": true,
          "internalType": "address",
          "name": "previousOwner",
          "type": "address"
        },
        {
          "indexed": true,
          "internalType": "address",
          "name": "newOwner",
          "type": "address"
        }
      ],
      "name": "OwnershipTransferred",
      "type": "event"
    },
    {
      "anonymous": false,
      "inputs": [
        {
          "indexed": true,
          "internalType": "address",
          "name": "operator",
          "type": "address"
        },
        {
          "indexed": true,
          "internalType": "address",
          "name": "from",
          "type": "address"
        },
        {
          "indexed": true,
          "internalType": "address",
          "name": "to",
          "type": "address"
        },
        {
          "indexed": false,
          "internalType": "uint256[]",
          "name": "ids",
          "type": "uint256[]"
        },
        {
          "indexed": false,
          "internalType": "uint256[]",
          "name": "values",
          "type": "uint256[]"
        }
      ],
      "name": "TransferBatch",
      "type": "event"
    },
    {
      "anonymous": false,
      "inputs": [
        {
          "indexed": true,
          "internalType": "address",
          "name": "operator",
          "type": "address"
        },
        {
          "indexed": true,
          "internalType": "address",
          "name": "from",
          "type": "address"
        },
        {
          "indexed": true,
          "internalType": "address",
          "name": "to",
          "type": "address"
        },
        {
          "indexed": false,
          "internalType": "uint256",
          "name": "id",
          "type": "uint256"
        },
        {
          "indexed": false,
          "internalType": "uint256",
          "name": "value",
          "type": "uint256"
        }
      ],
      "name": "TransferSingle",
      "type": "event"
    },
    {
      "anonymous": false,
      "inputs": [
        {
          "indexed": false,
          "internalType": "string",
          "name": "value",
          "type": "string"
        },
        {
          "indexed": true,
          "internalType": "uint256",
          "name": "id",
          "type": "uint256"
        }
      ],
      "name": "URI",
      "type": "event"
    },
    {
      "inputs": [],
      "name": "GOLD",
      "outputs": [
        {
          "internalType": "uint256",
          "name": "",
          "type": "uint256"
        }
      ],
      "stateMutability": "view",
      "type": "function"
    },
    {
      "inputs": [],
      "name": "SHIELD",
      "outputs": [
        {
          "internalType": "uint256",
          "name": "",
          "type": "uint256"
        }
      ],
      "stateMutability": "view",
      "type": "function"
    },
    {
      "inputs": [],
      "name": "SWORD",
      "outputs": [
        {
          "internalType": "uint256",
          "name": "",
          "type": "uint256"
        }
      ],
      "stateMutability": "view",
      "type": "function"
    },
    {
      "inputs": [
        {
          "internalType": "uint256",
          "name": "_id",
          "type": "uint256"
        },
        {
          "internalType": "uint256",
          "name": "_price",
          "type": "uint256"
        }
      ],
      "name": "assignPricePerItem",
      "outputs": [],
      "stateMutability": "nonpayable",
      "type": "function"
    },
    {
      "inputs": [
        {
          "internalType": "address",
          "name": "account",
          "type": "address"
        },
        {
          "internalType": "uint256",
          "name": "id",
          "type": "uint256"
        }
      ],
      "name": "balanceOf",
      "outputs": [
        {
          "internalType": "uint256",
          "name": "",
          "type": "uint256"
        }
      ],
      "stateMutability": "view",
      "type": "function"
    },
    {
      "inputs": [
        {
          "internalType": "address[]",
          "name": "accounts",
          "type": "address[]"
        },
        {
          "internalType": "uint256[]",
          "name": "ids",
          "type": "uint256[]"
        }
      ],
      "name": "balanceOfBatch",
      "outputs": [
        {
          "internalType": "uint256[]",
          "name": "",
          "type": "uint256[]"
        }
      ],
      "stateMutability": "view",
      "type": "function"
    },
    {
      "inputs": [
        {
          "internalType": "address",
          "name": "account",
          "type": "address"
        },
        {
          "internalType": "address",
          "name": "operator",
          "type": "address"
        }
      ],
      "name": "isApprovedForAll",
      "outputs": [
        {
          "internalType": "bool",
          "name": "",
          "type": "bool"
        }
      ],
      "stateMutability": "view",
      "type": "function"
    },
    {
      "inputs": [],
      "name": "owner",
      "outputs": [
        {
          "internalType": "address",
          "name": "",
          "type": "address"
        }
      ],
      "stateMutability": "view",
      "type": "function"
    },
    {
      "inputs": [],
      "name": "renounceOwnership",
      "outputs": [],
      "stateMutability": "nonpayable",
      "type": "function"
    },
    {
      "inputs": [
        {
          "internalType": "address",
          "name": "from",
          "type": "address"
        },
        {
          "internalType": "address",
          "name": "to",
          "type": "address"
        },
        {
          "internalType": "uint256[]",
          "name": "ids",
          "type": "uint256[]"
        },
        {
          "internalType": "uint256[]",
          "name": "amounts",
          "type": "uint256[]"
        },
        {
          "internalType": "bytes",
          "name": "data",
          "type": "bytes"
        }
      ],
      "name": "safeBatchTransferFrom",
      "outputs": [],
      "stateMutability": "nonpayable",
      "type": "function"
    },
    {
      "inputs": [
        {
          "internalType": "address",
          "name": "from",
          "type": "address"
        },
        {
          "internalType": "address",
          "name": "to",
          "type": "address"
        },
        {
          "internalType": "uint256",
          "name": "id",
          "type": "uint256"
        },
        {
          "internalType": "uint256",
          "name": "amount",
          "type": "uint256"
        },
        {
          "internalType": "bytes",
          "name": "data",
          "type": "bytes"
        }
      ],
      "name": "safeTransferFrom",
      "outputs": [],
      "stateMutability": "nonpayable",
      "type": "function"
    },
    {
      "inputs": [
        {
          "internalType": "uint256",
          "name": "_amount",
          "type": "uint256"
        },
        {
          "internalType": "address",
          "name": "_to",
          "type": "address"
        }
      ],
      "name": "sendGold",
      "outputs": [],
      "stateMutability": "nonpayable",
      "type": "function"
    },
    {
      "inputs": [
        {
          "internalType": "uint256",
          "name": "_amount",
          "type": "uint256"
        },
        {
          "internalType": "address",
          "name": "_to",
          "type": "address"
        }
      ],
      "name": "sendShield",
      "outputs": [],
      "stateMutability": "nonpayable",
      "type": "function"
    },
    {
      "inputs": [
        {
          "internalType": "uint256",
          "name": "_amount",
          "type": "uint256"
        },
        {
          "internalType": "address",
          "name": "_to",
          "type": "address"
        }
      ],
      "name": "sendSword",
      "outputs": [],
      "stateMutability": "nonpayable",
      "type": "function"
    },
    {
      "inputs": [
        {
          "internalType": "address",
          "name": "operator",
          "type": "address"
        },
        {
          "internalType": "bool",
          "name": "approved",
          "type": "bool"
        }
      ],
      "name": "setApprovalForAll",
      "outputs": [],
      "stateMutability": "nonpayable",
      "type": "function"
    },
    {
      "inputs": [
        {
          "internalType": "bytes4",
          "name": "interfaceId",
          "type": "bytes4"
        }
      ],
      "name": "supportsInterface",
      "outputs": [
        {
          "internalType": "bool",
          "name": "",
          "type": "bool"
        }
      ],
      "stateMutability": "view",
      "type": "function"
    },
    {
      "inputs": [
        {
          "internalType": "uint256",
          "name": "_id",
          "type": "uint256"
        },
        {
          "internalType": "uint256",
          "name": "_amount",
          "type": "uint256"
        }
      ],
      "name": "tradeObjectForGold",
      "outputs": [],
      "stateMutability": "nonpayable",
      "type": "function"
    },
    {
      "inputs": [
        {
          "internalType": "address",
          "name": "newOwner",
          "type": "address"
        }
      ],
      "name": "transferOwnership",
      "outputs": [],
      "stateMutability": "nonpayable",
      "type": "function"
    },
    {
      "inputs": [
        {
          "internalType": "uint256",
          "name": "",
          "type": "uint256"
        }
      ],
      "name": "uri",
      "outputs": [
        {
          "internalType": "string",
          "name": "",
          "type": "string"
        }
      ],
      "stateMutability": "view",
      "type": "function"
    }
  ],
  "bytecode": "0x60806040523480156200001157600080fd5b506040518060600160405280602f815260200162003d80602f91396200003d816200014160201b60201c565b506200005e620000526200015d60201b60201c565b6200016560201b60201c565b62000099620000726200022b60201b60201c565b6000670de0b6b3a7640000604051806020016040528060008152506200025560201b60201c565b620000d0620000ad6200022b60201b60201c565b6001633b9aca00604051806020016040528060008152506200025560201b60201c565b62000107620000e46200022b60201b60201c565b6002633b9aca00604051806020016040528060008152506200025560201b60201c565b600a600460006001815260200190815260200160002081905550600f60046000600281526020019081526020016000208190555062000e66565b806002908051906020019062000159929190620006e9565b5050565b600033905090565b6000600360009054906101000a900473ffffffffffffffffffffffffffffffffffffffff16905081600360006101000a81548173ffffffffffffffffffffffffffffffffffffffff021916908373ffffffffffffffffffffffffffffffffffffffff1602179055508173ffffffffffffffffffffffffffffffffffffffff168173ffffffffffffffffffffffffffffffffffffffff167f8be0079c531659141344cd1fd0a4f28419497f9722a3daafe3b4186f6b6457e060405160405180910390a35050565b6000600360009054906101000a900473ffffffffffffffffffffffffffffffffffffffff16905090565b600073ffffffffffffffffffffffffffffffffffffffff168473ffffffffffffffffffffffffffffffffffffffff1603620002c7576040517f08c379a0000000000000000000000000000000000000000000000000000000008152600401620002be9062000820565b60405180910390fd5b6000620002d96200015d60201b60201c565b90506000620002ee856200043c60201b60201c565b9050600062000303856200043c60201b60201c565b90506200031c83600089858589620004bd60201b60201c565b8460008088815260200190815260200160002060008973ffffffffffffffffffffffffffffffffffffffff1673ffffffffffffffffffffffffffffffffffffffff16815260200190815260200160002060008282546200037d91906200087b565b925050819055508673ffffffffffffffffffffffffffffffffffffffff16600073ffffffffffffffffffffffffffffffffffffffff168473ffffffffffffffffffffffffffffffffffffffff167fc3d58168c5ae7397731d063d5bbf3d657854427343f4c083240f7aacaa2d0f628989604051620003fd929190620008e9565b60405180910390a46200041c83600089858589620004c560201b60201c565b6200043383600089898989620004cd60201b60201c565b50505050505050565b60606000600167ffffffffffffffff8111156200045e576200045d62000916565b5b6040519080825280602002602001820160405280156200048d5781602001602082028036833780820191505090505b5090508281600081518110620004a857620004a762000945565b5b60200260200101818152505080915050919050565b505050505050565b505050505050565b620004f98473ffffffffffffffffffffffffffffffffffffffff16620006c660201b62000c531760201c565b15620006be578373ffffffffffffffffffffffffffffffffffffffff1663f23a6e6187878686866040518663ffffffff1660e01b81526004016200054295949392919062000a5d565b6020604051808303816000875af19250505080156200058157506040513d601f19601f820116820180604052508101906200057e919062000b2d565b60015b62000632576200059062000b6c565b806308c379a003620005f35750620005a762000bc7565b80620005b45750620005f5565b806040517f08c379a0000000000000000000000000000000000000000000000000000000008152600401620005ea919062000cae565b60405180910390fd5b505b6040517f08c379a0000000000000000000000000000000000000000000000000000000008152600401620006299062000d48565b60405180910390fd5b63f23a6e6160e01b7bffffffffffffffffffffffffffffffffffffffffffffffffffffffff1916817bffffffffffffffffffffffffffffffffffffffffffffffffffffffff191614620006bc576040517f08c379a0000000000000000000000000000000000000000000000000000000008152600401620006b39062000de0565b60405180910390fd5b505b505050505050565b6000808273ffffffffffffffffffffffffffffffffffffffff163b119050919050565b828054620006f79062000e31565b90600052602060002090601f0160209004810192826200071b576000855562000767565b82601f106200073657805160ff191683800117855562000767565b8280016001018555821562000767579182015b828111156200076657825182559160200191906001019062000749565b5b5090506200077691906200077a565b5090565b5b80821115620007955760008160009055506001016200077b565b5090565b600082825260208201905092915050565b7f455243313135353a206d696e7420746f20746865207a65726f2061646472657360008201527f7300000000000000000000000000000000000000000000000000000000000000602082015250565b60006200080860218362000799565b91506200081582620007aa565b604082019050919050565b600060208201905081810360008301526200083b81620007f9565b9050919050565b6000819050919050565b7f4e487b7100000000000000000000000000000000000000000000000000000000600052601160045260246000fd5b6000620008888262000842565b9150620008958362000842565b9250827fffffffffffffffffffffffffffffffffffffffffffffffffffffffffffffffff03821115620008cd57620008cc6200084c565b5b828201905092915050565b620008e38162000842565b82525050565b6000604082019050620009006000830185620008d8565b6200090f6020830184620008d8565b9392505050565b7f4e487b7100000000000000000000000000000000000000000000000000000000600052604160045260246000fd5b7f4e487b7100000000000000000000000000000000000000000000000000000000600052603260045260246000fd5b600073ffffffffffffffffffffffffffffffffffffffff82169050919050565b6000620009a18262000974565b9050919050565b620009b38162000994565b82525050565b600081519050919050565b600082825260208201905092915050565b60005b83811015620009f5578082015181840152602081019050620009d8565b8381111562000a05576000848401525b50505050565b6000601f19601f8301169050919050565b600062000a2982620009b9565b62000a358185620009c4565b935062000a47818560208601620009d5565b62000a528162000a0b565b840191505092915050565b600060a08201905062000a746000830188620009a8565b62000a836020830187620009a8565b62000a926040830186620008d8565b62000aa16060830185620008d8565b818103608083015262000ab5818462000a1c565b90509695505050505050565b6000604051905090565b600080fd5b60007fffffffff0000000000000000000000000000000000000000000000000000000082169050919050565b62000b078162000ad0565b811462000b1357600080fd5b50565b60008151905062000b278162000afc565b92915050565b60006020828403121562000b465762000b4562000acb565b5b600062000b568482850162000b16565b91505092915050565b60008160e01c9050919050565b600060033d111562000b8e5760046000803e62000b8b60005162000b5f565b90505b90565b62000b9c8262000a0b565b810181811067ffffffffffffffff8211171562000bbe5762000bbd62000916565b5b80604052505050565b600060443d1062000c5f5762000bdc62000ac1565b60043d036004823e80513d602482011167ffffffffffffffff8211171562000c0657505062000c5f565b808201805167ffffffffffffffff81111562000c26575050505062000c5f565b80602083010160043d03850181111562000c4557505050505062000c5f565b62000c568260200185018662000b91565b82955050505050505b90565b600081519050919050565b600062000c7a8262000c62565b62000c86818562000799565b935062000c98818560208601620009d5565b62000ca38162000a0b565b840191505092915050565b6000602082019050818103600083015262000cca818462000c6d565b905092915050565b7f455243313135353a207472616e7366657220746f206e6f6e204552433131353560008201527f526563656976657220696d706c656d656e746572000000000000000000000000602082015250565b600062000d3060348362000799565b915062000d3d8262000cd2565b604082019050919050565b6000602082019050818103600083015262000d638162000d21565b9050919050565b7f455243313135353a204552433131353552656365697665722072656a6563746560008201527f6420746f6b656e73000000000000000000000000000000000000000000000000602082015250565b600062000dc860288362000799565b915062000dd58262000d6a565b604082019050919050565b6000602082019050818103600083015262000dfb8162000db9565b9050919050565b7f4e487b7100000000000000000000000000000000000000000000000000000000600052602260045260246000fd5b6000600282049050600182168062000e4a57607f821691505b60208210810362000e605762000e5f62000e02565b5b50919050565b612f0a8062000e766000396000f3fe608060405234801561001057600080fd5b50600436106101205760003560e01c80634cff66e9116100ad578063a22cb46511610071578063a22cb465146102f3578063d67a774a1461030f578063e985e9c51461032b578063f242432a1461035b578063f2fde38b1461037757610120565b80634cff66e9146102615780634e1273f41461027d5780635b2725ed146102ad578063715018a6146102cb5780638da5cb5b146102d557610120565b8063258c51c6116100f4578063258c51c6146101d35780632eb2c2d6146101ef578063329844e51461020b5780633e4bee381461022757806340e2b0a31461024557610120565b8062fdd58e1461012557806301ffc9a7146101555780630e89341c1461018557806313dc989f146101b5575b600080fd5b61013f600480360381019061013a9190611a34565b610393565b60405161014c9190611a83565b60405180910390f35b61016f600480360381019061016a9190611af6565b61045b565b60405161017c9190611b3e565b60405180910390f35b61019f600480360381019061019a9190611b59565b61053d565b6040516101ac9190611c1f565b60405180910390f35b6101bd6105d1565b6040516101ca9190611a83565b60405180910390f35b6101ed60048036038101906101e89190611c41565b6105d6565b005b61020960048036038101906102049190611e7e565b61062c565b005b61022560048036038101906102209190611c41565b6106cd565b005b61022f610723565b60405161023c9190611a83565b60405180910390f35b61025f600480360381019061025a9190611c41565b610728565b005b61027b60048036038101906102769190611f4d565b61077e565b005b61029760048036038101906102929190612050565b6108c2565b6040516102a49190612186565b60405180910390f35b6102b56109db565b6040516102c29190611a83565b60405180910390f35b6102d36109e0565b005b6102dd6109f4565b6040516102ea91906121b7565b60405180910390f35b61030d600480360381019061030891906121fe565b610a1e565b005b61032960048036038101906103249190611f4d565b610a34565b005b6103456004803603810190610340919061223e565b610a9b565b6040516103529190611b3e565b60405180910390f35b6103756004803603810190610370919061227e565b610b2f565b005b610391600480360381019061038c9190612315565b610bd0565b005b60008073ffffffffffffffffffffffffffffffffffffffff168373ffffffffffffffffffffffffffffffffffffffff1603610403576040517f08c379a00000000000000000000000000000000000000000000000000000000081526004016103fa906123b4565b60405180910390fd5b60008083815260200190815260200160002060008473ffffffffffffffffffffffffffffffffffffffff1673ffffffffffffffffffffffffffffffffffffffff16815260200190815260200160002054905092915050565b60007fd9b67a26000000000000000000000000000000000000000000000000000000007bffffffffffffffffffffffffffffffffffffffffffffffffffffffff1916827bffffffffffffffffffffffffffffffffffffffffffffffffffffffff1916148061052657507f0e89341c000000000000000000000000000000000000000000000000000000007bffffffffffffffffffffffffffffffffffffffffffffffffffffffff1916827bffffffffffffffffffffffffffffffffffffffffffffffffffffffff1916145b80610536575061053582610c76565b5b9050919050565b60606002805461054c90612403565b80601f016020809104026020016040519081016040528092919081815260200182805461057890612403565b80156105c55780601f1061059a576101008083540402835291602001916105c5565b820191906000526020600020905b8154815290600101906020018083116105a857829003601f168201915b50505050509050919050565b600181565b6105de610ce0565b6106286105e96109f4565b826001856040518060400160405280600481526020017f3078303000000000000000000000000000000000000000000000000000000000815250610b2f565b5050565b610634610d5e565b73ffffffffffffffffffffffffffffffffffffffff168573ffffffffffffffffffffffffffffffffffffffff16148061067a575061067985610674610d5e565b610a9b565b5b6106b9576040517f08c379a00000000000000000000000000000000000000000000000000000000081526004016106b0906124a6565b60405180910390fd5b6106c68585858585610d66565b5050505050565b6106d5610ce0565b61071f6106e06109f4565b826000856040518060400160405280600481526020017f3078303000000000000000000000000000000000000000000000000000000000815250610b2f565b5050565b600081565b610730610ce0565b61077a61073b6109f4565b826002856040518060400160405280600481526020017f3078303000000000000000000000000000000000000000000000000000000000815250610b2f565b5050565b806107893384610393565b10156107ca576040517f08c379a00000000000000000000000000000000000000000000000000000000081526004016107c190612512565b60405180910390fd5b6000820361080d576040517f08c379a00000000000000000000000000000000000000000000000000000000081526004016108049061257e565b60405180910390fd5b610856336108196109f4565b84846040518060400160405280600481526020017f3078303000000000000000000000000000000000000000000000000000000000815250611087565b6108be6108616109f4565b33600084600460008881526020019081526020016000205461088391906125cd565b6040518060400160405280600481526020017f3078303000000000000000000000000000000000000000000000000000000000815250611087565b5050565b60608151835114610908576040517f08c379a00000000000000000000000000000000000000000000000000000000081526004016108ff90612699565b60405180910390fd5b6000835167ffffffffffffffff81111561092557610924611c86565b5b6040519080825280602002602001820160405280156109535781602001602082028036833780820191505090505b50905060005b84518110156109d0576109a0858281518110610978576109776126b9565b5b6020026020010151858381518110610993576109926126b9565b5b6020026020010151610393565b8282815181106109b3576109b26126b9565b5b602002602001018181525050806109c9906126e8565b9050610959565b508091505092915050565b600281565b6109e8610ce0565b6109f26000611322565b565b6000600360009054906101000a900473ffffffffffffffffffffffffffffffffffffffff16905090565b610a30610a29610d5e565b83836113e8565b5050565b610a3c610ce0565b60008214610a7f576040517f08c379a0000000000000000000000000000000000000000000000000000000008152600401610a769061277c565b60405180910390fd5b8060046000848152602001908152602001600020819055505050565b6000600160008473ffffffffffffffffffffffffffffffffffffffff1673ffffffffffffffffffffffffffffffffffffffff16815260200190815260200160002060008373ffffffffffffffffffffffffffffffffffffffff1673ffffffffffffffffffffffffffffffffffffffff16815260200190815260200160002060009054906101000a900460ff16905092915050565b610b37610d5e565b73ffffffffffffffffffffffffffffffffffffffff168573ffffffffffffffffffffffffffffffffffffffff161480610b7d5750610b7c85610b77610d5e565b610a9b565b5b610bbc576040517f08c379a0000000000000000000000000000000000000000000000000000000008152600401610bb3906124a6565b60405180910390fd5b610bc98585858585611087565b5050505050565b610bd8610ce0565b600073ffffffffffffffffffffffffffffffffffffffff168173ffffffffffffffffffffffffffffffffffffffff1603610c47576040517f08c379a0000000000000000000000000000000000000000000000000000000008152600401610c3e9061280e565b60405180910390fd5b610c5081611322565b50565b6000808273ffffffffffffffffffffffffffffffffffffffff163b119050919050565b60007f01ffc9a7000000000000000000000000000000000000000000000000000000007bffffffffffffffffffffffffffffffffffffffffffffffffffffffff1916827bffffffffffffffffffffffffffffffffffffffffffffffffffffffff1916149050919050565b610ce8610d5e565b73ffffffffffffffffffffffffffffffffffffffff16610d066109f4565b73ffffffffffffffffffffffffffffffffffffffff1614610d5c576040517f08c379a0000000000000000000000000000000000000000000000000000000008152600401610d539061287a565b60405180910390fd5b565b600033905090565b8151835114610daa576040517f08c379a0000000000000000000000000000000000000000000000000000000008152600401610da19061290c565b60405180910390fd5b600073ffffffffffffffffffffffffffffffffffffffff168473ffffffffffffffffffffffffffffffffffffffff1603610e19576040517f08c379a0000000000000000000000000000000000000000000000000000000008152600401610e109061299e565b60405180910390fd5b6000610e23610d5e565b9050610e33818787878787611554565b60005b8451811015610fe4576000858281518110610e5457610e536126b9565b5b602002602001015190506000858381518110610e7357610e726126b9565b5b60200260200101519050600080600084815260200190815260200160002060008b73ffffffffffffffffffffffffffffffffffffffff1673ffffffffffffffffffffffffffffffffffffffff16815260200190815260200160002054905081811015610f14576040517f08c379a0000000000000000000000000000000000000000000000000000000008152600401610f0b90612a30565b60405180910390fd5b81810360008085815260200190815260200160002060008c73ffffffffffffffffffffffffffffffffffffffff1673ffffffffffffffffffffffffffffffffffffffff168152602001908152602001600020819055508160008085815260200190815260200160002060008b73ffffffffffffffffffffffffffffffffffffffff1673ffffffffffffffffffffffffffffffffffffffff1681526020019081526020016000206000828254610fc99190612a50565b9250508190555050505080610fdd906126e8565b9050610e36565b508473ffffffffffffffffffffffffffffffffffffffff168673ffffffffffffffffffffffffffffffffffffffff168273ffffffffffffffffffffffffffffffffffffffff167f4a39dc06d4c0dbc64b70af90fd698a233a518aa5d07e595d983b8c0526c8f7fb878760405161105b929190612aa6565b60405180910390a461107181878787878761155c565b61107f818787878787611564565b505050505050565b600073ffffffffffffffffffffffffffffffffffffffff168473ffffffffffffffffffffffffffffffffffffffff16036110f6576040517f08c379a00000000000000000000000000000000000000000000000000000000081526004016110ed9061299e565b60405180910390fd5b6000611100610d5e565b9050600061110d8561173b565b9050600061111a8561173b565b905061112a838989858589611554565b600080600088815260200190815260200160002060008a73ffffffffffffffffffffffffffffffffffffffff1673ffffffffffffffffffffffffffffffffffffffff168152602001908152602001600020549050858110156111c1576040517f08c379a00000000000000000000000000000000000000000000000000000000081526004016111b890612a30565b60405180910390fd5b85810360008089815260200190815260200160002060008b73ffffffffffffffffffffffffffffffffffffffff1673ffffffffffffffffffffffffffffffffffffffff168152602001908152602001600020819055508560008089815260200190815260200160002060008a73ffffffffffffffffffffffffffffffffffffffff1673ffffffffffffffffffffffffffffffffffffffff16815260200190815260200160002060008282546112769190612a50565b925050819055508773ffffffffffffffffffffffffffffffffffffffff168973ffffffffffffffffffffffffffffffffffffffff168573ffffffffffffffffffffffffffffffffffffffff167fc3d58168c5ae7397731d063d5bbf3d657854427343f4c083240f7aacaa2d0f628a8a6040516112f3929190612add565b60405180910390a4611309848a8a86868a61155c565b611317848a8a8a8a8a6117b5565b505050505050505050565b6000600360009054906101000a900473ffffffffffffffffffffffffffffffffffffffff16905081600360006101000a81548173ffffffffffffffffffffffffffffffffffffffff021916908373ffffffffffffffffffffffffffffffffffffffff1602179055508173ffffffffffffffffffffffffffffffffffffffff168173ffffffffffffffffffffffffffffffffffffffff167f8be0079c531659141344cd1fd0a4f28419497f9722a3daafe3b4186f6b6457e060405160405180910390a35050565b8173ffffffffffffffffffffffffffffffffffffffff168373ffffffffffffffffffffffffffffffffffffffff1603611456576040517f08c379a000000000000000000000000000000000000000000000000000000000815260040161144d90612b78565b60405180910390fd5b80600160008573ffffffffffffffffffffffffffffffffffffffff1673ffffffffffffffffffffffffffffffffffffffff16815260200190815260200160002060008473ffffffffffffffffffffffffffffffffffffffff1673ffffffffffffffffffffffffffffffffffffffff16815260200190815260200160002060006101000a81548160ff0219169083151502179055508173ffffffffffffffffffffffffffffffffffffffff168373ffffffffffffffffffffffffffffffffffffffff167f17307eab39ab6107e8899845ad3d59bd9653f200f220920489ca2b5937696c31836040516115479190611b3e565b60405180910390a3505050565b505050505050565b505050505050565b6115838473ffffffffffffffffffffffffffffffffffffffff16610c53565b15611733578373ffffffffffffffffffffffffffffffffffffffff1663bc197c8187878686866040518663ffffffff1660e01b81526004016115c9959493929190612bed565b6020604051808303816000875af192505050801561160557506040513d601f19601f820116820180604052508101906116029190612c6a565b60015b6116aa57611611612ca4565b806308c379a00361166d5750611625612cc6565b80611630575061166f565b806040517f08c379a00000000000000000000000000000000000000000000000000000000081526004016116649190611c1f565b60405180910390fd5b505b6040517f08c379a00000000000000000000000000000000000000000000000000000000081526004016116a190612dc8565b60405180910390fd5b63bc197c8160e01b7bffffffffffffffffffffffffffffffffffffffffffffffffffffffff1916817bffffffffffffffffffffffffffffffffffffffffffffffffffffffff191614611731576040517f08c379a000000000000000000000000000000000000000000000000000000000815260040161172890612e5a565b60405180910390fd5b505b505050505050565b60606000600167ffffffffffffffff81111561175a57611759611c86565b5b6040519080825280602002602001820160405280156117885781602001602082028036833780820191505090505b50905082816000815181106117a05761179f6126b9565b5b60200260200101818152505080915050919050565b6117d48473ffffffffffffffffffffffffffffffffffffffff16610c53565b15611984578373ffffffffffffffffffffffffffffffffffffffff1663f23a6e6187878686866040518663ffffffff1660e01b815260040161181a959493929190612e7a565b6020604051808303816000875af192505050801561185657506040513d601f19601f820116820180604052508101906118539190612c6a565b60015b6118fb57611862612ca4565b806308c379a0036118be5750611876612cc6565b8061188157506118c0565b806040517f08c379a00000000000000000000000000000000000000000000000000000000081526004016118b59190611c1f565b60405180910390fd5b505b6040517f08c379a00000000000000000000000000000000000000000000000000000000081526004016118f290612dc8565b60405180910390fd5b63f23a6e6160e01b7bffffffffffffffffffffffffffffffffffffffffffffffffffffffff1916817bffffffffffffffffffffffffffffffffffffffffffffffffffffffff191614611982576040517f08c379a000000000000000000000000000000000000000000000000000000000815260040161197990612e5a565b60405180910390fd5b505b505050505050565b6000604051905090565b600080fd5b600080fd5b600073ffffffffffffffffffffffffffffffffffffffff82169050919050565b60006119cb826119a0565b9050919050565b6119db816119c0565b81146119e657600080fd5b50565b6000813590506119f8816119d2565b92915050565b6000819050919050565b611a11816119fe565b8114611a1c57600080fd5b50565b600081359050611a2e81611a08565b92915050565b60008060408385031215611a4b57611a4a611996565b5b6000611a59858286016119e9565b9250506020611a6a85828601611a1f565b9150509250929050565b611a7d816119fe565b82525050565b6000602082019050611a986000830184611a74565b92915050565b60007fffffffff0000000000000000000000000000000000000000000000000000000082169050919050565b611ad381611a9e565b8114611ade57600080fd5b50565b600081359050611af081611aca565b92915050565b600060208284031215611b0c57611b0b611996565b5b6000611b1a84828501611ae1565b91505092915050565b60008115159050919050565b611b3881611b23565b82525050565b6000602082019050611b536000830184611b2f565b92915050565b600060208284031215611b6f57611b6e611996565b5b6000611b7d84828501611a1f565b91505092915050565b600081519050919050565b600082825260208201905092915050565b60005b83811015611bc0578082015181840152602081019050611ba5565b83811115611bcf576000848401525b50505050565b6000601f19601f8301169050919050565b6000611bf182611b86565b611bfb8185611b91565b9350611c0b818560208601611ba2565b611c1481611bd5565b840191505092915050565b60006020820190508181036000830152611c398184611be6565b905092915050565b60008060408385031215611c5857611c57611996565b5b6000611c6685828601611a1f565b9250506020611c77858286016119e9565b9150509250929050565b600080fd5b7f4e487b7100000000000000000000000000000000000000000000000000000000600052604160045260246000fd5b611cbe82611bd5565b810181811067ffffffffffffffff82111715611cdd57611cdc611c86565b5b80604052505050565b6000611cf061198c565b9050611cfc8282611cb5565b919050565b600067ffffffffffffffff821115611d1c57611d1b611c86565b5b602082029050602081019050919050565b600080fd5b6000611d45611d4084611d01565b611ce6565b90508083825260208201905060208402830185811115611d6857611d67611d2d565b5b835b81811015611d915780611d7d8882611a1f565b845260208401935050602081019050611d6a565b5050509392505050565b600082601f830112611db057611daf611c81565b5b8135611dc0848260208601611d32565b91505092915050565b600080fd5b600067ffffffffffffffff821115611de957611de8611c86565b5b611df282611bd5565b9050602081019050919050565b82818337600083830152505050565b6000611e21611e1c84611dce565b611ce6565b905082815260208101848484011115611e3d57611e3c611dc9565b5b611e48848285611dff565b509392505050565b600082601f830112611e6557611e64611c81565b5b8135611e75848260208601611e0e565b91505092915050565b600080600080600060a08688031215611e9a57611e99611996565b5b6000611ea8888289016119e9565b9550506020611eb9888289016119e9565b945050604086013567ffffffffffffffff811115611eda57611ed961199b565b5b611ee688828901611d9b565b935050606086013567ffffffffffffffff811115611f0757611f0661199b565b5b611f1388828901611d9b565b925050608086013567ffffffffffffffff811115611f3457611f3361199b565b5b611f4088828901611e50565b9150509295509295909350565b60008060408385031215611f6457611f63611996565b5b6000611f7285828601611a1f565b9250506020611f8385828601611a1f565b9150509250929050565b600067ffffffffffffffff821115611fa857611fa7611c86565b5b602082029050602081019050919050565b6000611fcc611fc784611f8d565b611ce6565b90508083825260208201905060208402830185811115611fef57611fee611d2d565b5b835b81811015612018578061200488826119e9565b845260208401935050602081019050611ff1565b5050509392505050565b600082601f83011261203757612036611c81565b5b8135612047848260208601611fb9565b91505092915050565b6000806040838503121561206757612066611996565b5b600083013567ffffffffffffffff8111156120855761208461199b565b5b61209185828601612022565b925050602083013567ffffffffffffffff8111156120b2576120b161199b565b5b6120be85828601611d9b565b9150509250929050565b600081519050919050565b600082825260208201905092915050565b6000819050602082019050919050565b6120fd816119fe565b82525050565b600061210f83836120f4565b60208301905092915050565b6000602082019050919050565b6000612133826120c8565b61213d81856120d3565b9350612148836120e4565b8060005b838110156121795781516121608882612103565b975061216b8361211b565b92505060018101905061214c565b5085935050505092915050565b600060208201905081810360008301526121a08184612128565b905092915050565b6121b1816119c0565b82525050565b60006020820190506121cc60008301846121a8565b92915050565b6121db81611b23565b81146121e657600080fd5b50565b6000813590506121f8816121d2565b92915050565b6000806040838503121561221557612214611996565b5b6000612223858286016119e9565b9250506020612234858286016121e9565b9150509250929050565b6000806040838503121561225557612254611996565b5b6000612263858286016119e9565b9250506020612274858286016119e9565b9150509250929050565b600080600080600060a0868803121561229a57612299611996565b5b60006122a8888289016119e9565b95505060206122b9888289016119e9565b94505060406122ca88828901611a1f565b93505060606122db88828901611a1f565b925050608086013567ffffffffffffffff8111156122fc576122fb61199b565b5b61230888828901611e50565b9150509295509295909350565b60006020828403121561232b5761232a611996565b5b6000612339848285016119e9565b91505092915050565b7f455243313135353a2061646472657373207a65726f206973206e6f742061207660008201527f616c6964206f776e657200000000000000000000000000000000000000000000602082015250565b600061239e602a83611b91565b91506123a982612342565b604082019050919050565b600060208201905081810360008301526123cd81612391565b9050919050565b7f4e487b7100000000000000000000000000000000000000000000000000000000600052602260045260246000fd5b6000600282049050600182168061241b57607f821691505b60208210810361242e5761242d6123d4565b5b50919050565b7f455243313135353a2063616c6c6572206973206e6f7420746f6b656e206f776e60008201527f6572206e6f7220617070726f7665640000000000000000000000000000000000602082015250565b6000612490602f83611b91565b915061249b82612434565b604082019050919050565b600060208201905081810360008301526124bf81612483565b9050919050565b7f4e6f7420656e6f75676820617373657473000000000000000000000000000000600082015250565b60006124fc601183611b91565b9150612507826124c6565b602082019050919050565b6000602082019050818103600083015261252b816124ef565b9050919050565b7f43616e6e6f7420747261646520676f6c64000000000000000000000000000000600082015250565b6000612568601183611b91565b915061257382612532565b602082019050919050565b600060208201905081810360008301526125978161255b565b9050919050565b7f4e487b7100000000000000000000000000000000000000000000000000000000600052601160045260246000fd5b60006125d8826119fe565b91506125e3836119fe565b9250817fffffffffffffffffffffffffffffffffffffffffffffffffffffffffffffffff048311821515161561261c5761261b61259e565b5b828202905092915050565b7f455243313135353a206163636f756e747320616e6420696473206c656e67746860008201527f206d69736d617463680000000000000000000000000000000000000000000000602082015250565b6000612683602983611b91565b915061268e82612627565b604082019050919050565b600060208201905081810360008301526126b281612676565b9050919050565b7f4e487b7100000000000000000000000000000000000000000000000000000000600052603260045260246000fd5b60006126f3826119fe565b91507fffffffffffffffffffffffffffffffffffffffffffffffffffffffffffffffff82036127255761272461259e565b5b600182019050919050565b7f43616e6e6f742073657420707269636520666f7220676f6c6400000000000000600082015250565b6000612766601983611b91565b915061277182612730565b602082019050919050565b6000602082019050818103600083015261279581612759565b9050919050565b7f4f776e61626c653a206e6577206f776e657220697320746865207a65726f206160008201527f6464726573730000000000000000000000000000000000000000000000000000602082015250565b60006127f8602683611b91565b91506128038261279c565b604082019050919050565b60006020820190508181036000830152612827816127eb565b9050919050565b7f4f776e61626c653a2063616c6c6572206973206e6f7420746865206f776e6572600082015250565b6000612864602083611b91565b915061286f8261282e565b602082019050919050565b6000602082019050818103600083015261289381612857565b9050919050565b7f455243313135353a2069647320616e6420616d6f756e7473206c656e6774682060008201527f6d69736d61746368000000000000000000000000000000000000000000000000602082015250565b60006128f6602883611b91565b91506129018261289a565b604082019050919050565b60006020820190508181036000830152612925816128e9565b9050919050565b7f455243313135353a207472616e7366657220746f20746865207a65726f20616460008201527f6472657373000000000000000000000000000000000000000000000000000000602082015250565b6000612988602583611b91565b91506129938261292c565b604082019050919050565b600060208201905081810360008301526129b78161297b565b9050919050565b7f455243313135353a20696e73756666696369656e742062616c616e636520666f60008201527f72207472616e7366657200000000000000000000000000000000000000000000602082015250565b6000612a1a602a83611b91565b9150612a25826129be565b604082019050919050565b60006020820190508181036000830152612a4981612a0d565b9050919050565b6000612a5b826119fe565b9150612a66836119fe565b9250827fffffffffffffffffffffffffffffffffffffffffffffffffffffffffffffffff03821115612a9b57612a9a61259e565b5b828201905092915050565b60006040820190508181036000830152612ac08185612128565b90508181036020830152612ad48184612128565b90509392505050565b6000604082019050612af26000830185611a74565b612aff6020830184611a74565b9392505050565b7f455243313135353a2073657474696e6720617070726f76616c2073746174757360008201527f20666f722073656c660000000000000000000000000000000000000000000000602082015250565b6000612b62602983611b91565b9150612b6d82612b06565b604082019050919050565b60006020820190508181036000830152612b9181612b55565b9050919050565b600081519050919050565b600082825260208201905092915050565b6000612bbf82612b98565b612bc98185612ba3565b9350612bd9818560208601611ba2565b612be281611bd5565b840191505092915050565b600060a082019050612c0260008301886121a8565b612c0f60208301876121a8565b8181036040830152612c218186612128565b90508181036060830152612c358185612128565b90508181036080830152612c498184612bb4565b90509695505050505050565b600081519050612c6481611aca565b92915050565b600060208284031215612c8057612c7f611996565b5b6000612c8e84828501612c55565b91505092915050565b60008160e01c9050919050565b600060033d1115612cc35760046000803e612cc0600051612c97565b90505b90565b600060443d10612d5357612cd861198c565b60043d036004823e80513d602482011167ffffffffffffffff82111715612d00575050612d53565b808201805167ffffffffffffffff811115612d1e5750505050612d53565b80602083010160043d038501811115612d3b575050505050612d53565b612d4a82602001850186611cb5565b82955050505050505b90565b7f455243313135353a207472616e7366657220746f206e6f6e204552433131353560008201527f526563656976657220696d706c656d656e746572000000000000000000000000602082015250565b6000612db2603483611b91565b9150612dbd82612d56565b604082019050919050565b60006020820190508181036000830152612de181612da5565b9050919050565b7f455243313135353a204552433131353552656365697665722072656a6563746560008201527f6420746f6b656e73000000000000000000000000000000000000000000000000602082015250565b6000612e44602883611b91565b9150612e4f82612de8565b604082019050919050565b60006020820190508181036000830152612e7381612e37565b9050919050565b600060a082019050612e8f60008301886121a8565b612e9c60208301876121a8565b612ea96040830186611a74565b612eb66060830185611a74565b8181036080830152612ec88184612bb4565b9050969550505050505056fea264697066735822122017df2d39eab95bda22259c37e6397299f7ee4089ca75f5b50d63840e4678a5c164736f6c634300080e003368747470733a2f2f6574682e616e746f6e6c6f67696e6f762e636f6d2f6170692f6974656d2f7b69647d2e6a736f6e",
  "linkReferences": {},
  "deployedLinkReferences": {}
}