{
  "_format": "hh-sol-artifact-1",
  "contractName": "BasicGameItems",
  "sourceName": "contracts/BasicGameItems.sol",
  "abi": [
    {
      "inputs": [],
      "stateMutability": "nonpayable",
      "type": "constructor"
    },
    {
      "anonymous": false,
      "inputs": [
        {
          "indexed": true,
          "internalType": "address",
          "name": "account",
          "type": "address"
        },
        {
          "indexed": true,
          "internalType": "address",
          "name": "operator",
          "type": "address"
        },
        {
          "indexed": false,
          "internalType": "bool",
          "name": "approved",
          "type": "bool"
        }
      ],
      "name": "ApprovalForAll",
      "type": "event"
    },
    {
      "anonymous": false,
      "inputs": [
        {
          "indexed": true,
          "internalType": "address",
          "name": "previousOwner",
          "type": "address"
        },
        {
          "indexed": true,
          "internalType": "address",
          "name": "newOwner",
          "type": "address"
        }
      ],
      "name": "OwnershipTransferred",
      "type": "event"
    },
    {
      "anonymous": false,
      "inputs": [
        {
          "indexed": true,
          "internalType": "address",
          "name": "operator",
          "type": "address"
        },
        {
          "indexed": true,
          "internalType": "address",
          "name": "from",
          "type": "address"
        },
        {
          "indexed": true,
          "internalType": "address",
          "name": "to",
          "type": "address"
        },
        {
          "indexed": false,
          "internalType": "uint256[]",
          "name": "ids",
          "type": "uint256[]"
        },
        {
          "indexed": false,
          "internalType": "uint256[]",
          "name": "values",
          "type": "uint256[]"
        }
      ],
      "name": "TransferBatch",
      "type": "event"
    },
    {
      "anonymous": false,
      "inputs": [
        {
          "indexed": true,
          "internalType": "address",
          "name": "operator",
          "type": "address"
        },
        {
          "indexed": true,
          "internalType": "address",
          "name": "from",
          "type": "address"
        },
        {
          "indexed": true,
          "internalType": "address",
          "name": "to",
          "type": "address"
        },
        {
          "indexed": false,
          "internalType": "uint256",
          "name": "id",
          "type": "uint256"
        },
        {
          "indexed": false,
          "internalType": "uint256",
          "name": "value",
          "type": "uint256"
        }
      ],
      "name": "TransferSingle",
      "type": "event"
    },
    {
      "anonymous": false,
      "inputs": [
        {
          "indexed": false,
          "internalType": "string",
          "name": "value",
          "type": "string"
        },
        {
          "indexed": true,
          "internalType": "uint256",
          "name": "id",
          "type": "uint256"
        }
      ],
      "name": "URI",
      "type": "event"
    },
    {
      "inputs": [],
      "name": "GOLD",
      "outputs": [
        {
          "internalType": "uint256",
          "name": "",
          "type": "uint256"
        }
      ],
      "stateMutability": "view",
      "type": "function"
    },
    {
      "inputs": [],
      "name": "LEGENDARY_ARMOR",
      "outputs": [
        {
          "internalType": "uint256",
          "name": "",
          "type": "uint256"
        }
      ],
      "stateMutability": "view",
      "type": "function"
    },
    {
      "inputs": [],
      "name": "SHIELD",
      "outputs": [
        {
          "internalType": "uint256",
          "name": "",
          "type": "uint256"
        }
      ],
      "stateMutability": "view",
      "type": "function"
    },
    {
      "inputs": [],
      "name": "SWORD",
      "outputs": [
        {
          "internalType": "uint256",
          "name": "",
          "type": "uint256"
        }
      ],
      "stateMutability": "view",
      "type": "function"
    },
    {
      "inputs": [
        {
          "internalType": "uint256",
          "name": "_id",
          "type": "uint256"
        },
        {
          "internalType": "uint256",
          "name": "_price",
          "type": "uint256"
        }
      ],
      "name": "assignPricePerItem",
      "outputs": [],
      "stateMutability": "nonpayable",
      "type": "function"
    },
    {
      "inputs": [
        {
          "internalType": "address",
          "name": "account",
          "type": "address"
        },
        {
          "internalType": "uint256",
          "name": "id",
          "type": "uint256"
        }
      ],
      "name": "balanceOf",
      "outputs": [
        {
          "internalType": "uint256",
          "name": "",
          "type": "uint256"
        }
      ],
      "stateMutability": "view",
      "type": "function"
    },
    {
      "inputs": [
        {
          "internalType": "address[]",
          "name": "accounts",
          "type": "address[]"
        },
        {
          "internalType": "uint256[]",
          "name": "ids",
          "type": "uint256[]"
        }
      ],
      "name": "balanceOfBatch",
      "outputs": [
        {
          "internalType": "uint256[]",
          "name": "",
          "type": "uint256[]"
        }
      ],
      "stateMutability": "view",
      "type": "function"
    },
    {
      "inputs": [
        {
          "internalType": "uint256",
          "name": "_id",
          "type": "uint256"
        }
      ],
      "name": "getPriceForItem",
      "outputs": [
        {
          "internalType": "uint256",
          "name": "",
          "type": "uint256"
        }
      ],
      "stateMutability": "view",
      "type": "function"
    },
    {
      "inputs": [
        {
          "internalType": "address",
          "name": "account",
          "type": "address"
        },
        {
          "internalType": "address",
          "name": "operator",
          "type": "address"
        }
      ],
      "name": "isApprovedForAll",
      "outputs": [
        {
          "internalType": "bool",
          "name": "",
          "type": "bool"
        }
      ],
      "stateMutability": "view",
      "type": "function"
    },
    {
      "inputs": [
        {
          "internalType": "address",
          "name": "_to",
          "type": "address"
        }
      ],
      "name": "mintLegendaryItem",
      "outputs": [],
      "stateMutability": "nonpayable",
      "type": "function"
    },
    {
      "inputs": [
        {
          "internalType": "uint256",
          "name": "_amount",
          "type": "uint256"
        },
        {
          "internalType": "address",
          "name": "_to",
          "type": "address"
        }
      ],
      "name": "mintShield",
      "outputs": [],
      "stateMutability": "nonpayable",
      "type": "function"
    },
    {
      "inputs": [
        {
          "internalType": "uint256",
          "name": "_amount",
          "type": "uint256"
        },
        {
          "internalType": "address",
          "name": "_to",
          "type": "address"
        }
      ],
      "name": "mintSword",
      "outputs": [],
      "stateMutability": "nonpayable",
      "type": "function"
    },
    {
      "inputs": [],
      "name": "owner",
      "outputs": [
        {
          "internalType": "address",
          "name": "",
          "type": "address"
        }
      ],
      "stateMutability": "view",
      "type": "function"
    },
    {
      "inputs": [],
      "name": "renounceOwnership",
      "outputs": [],
      "stateMutability": "nonpayable",
      "type": "function"
    },
    {
      "inputs": [
        {
          "internalType": "address",
          "name": "from",
          "type": "address"
        },
        {
          "internalType": "address",
          "name": "to",
          "type": "address"
        },
        {
          "internalType": "uint256[]",
          "name": "ids",
          "type": "uint256[]"
        },
        {
          "internalType": "uint256[]",
          "name": "amounts",
          "type": "uint256[]"
        },
        {
          "internalType": "bytes",
          "name": "data",
          "type": "bytes"
        }
      ],
      "name": "safeBatchTransferFrom",
      "outputs": [],
      "stateMutability": "nonpayable",
      "type": "function"
    },
    {
      "inputs": [
        {
          "internalType": "address",
          "name": "from",
          "type": "address"
        },
        {
          "internalType": "address",
          "name": "to",
          "type": "address"
        },
        {
          "internalType": "uint256",
          "name": "id",
          "type": "uint256"
        },
        {
          "internalType": "uint256",
          "name": "amount",
          "type": "uint256"
        },
        {
          "internalType": "bytes",
          "name": "data",
          "type": "bytes"
        }
      ],
      "name": "safeTransferFrom",
      "outputs": [],
      "stateMutability": "nonpayable",
      "type": "function"
    },
    {
      "inputs": [
        {
          "internalType": "uint256",
          "name": "_amount",
          "type": "uint256"
        },
        {
          "internalType": "address",
          "name": "_to",
          "type": "address"
        }
      ],
      "name": "sendGold",
      "outputs": [],
      "stateMutability": "nonpayable",
      "type": "function"
    },
    {
      "inputs": [
        {
          "internalType": "address",
          "name": "operator",
          "type": "address"
        },
        {
          "internalType": "bool",
          "name": "approved",
          "type": "bool"
        }
      ],
      "name": "setApprovalForAll",
      "outputs": [],
      "stateMutability": "nonpayable",
      "type": "function"
    },
    {
      "inputs": [
        {
          "internalType": "bytes4",
          "name": "interfaceId",
          "type": "bytes4"
        }
      ],
      "name": "supportsInterface",
      "outputs": [
        {
          "internalType": "bool",
          "name": "",
          "type": "bool"
        }
      ],
      "stateMutability": "view",
      "type": "function"
    },
    {
      "inputs": [
        {
          "internalType": "uint256",
          "name": "_id",
          "type": "uint256"
        },
        {
          "internalType": "uint256",
          "name": "_amount",
          "type": "uint256"
        }
      ],
      "name": "tradeObjectForGold",
      "outputs": [],
      "stateMutability": "nonpayable",
      "type": "function"
    },
    {
      "inputs": [
        {
          "internalType": "address",
          "name": "newOwner",
          "type": "address"
        }
      ],
      "name": "transferOwnership",
      "outputs": [],
      "stateMutability": "nonpayable",
      "type": "function"
    },
    {
      "inputs": [
        {
          "internalType": "uint256",
          "name": "",
          "type": "uint256"
        }
      ],
      "name": "uri",
      "outputs": [
        {
          "internalType": "string",
          "name": "",
          "type": "string"
        }
      ],
      "stateMutability": "view",
      "type": "function"
    }
  ],
  "bytecode": "0x60806040526000600560006101000a81548160ff0219169083151502179055503480156200002c57600080fd5b506040518060400160405280602081526020017f687474703a2f2f6c6f63616c686f73742f6974656d732f7b69647d2e6a736f6e81525062000074816200010a60201b60201c565b5062000095620000896200012660201b60201c565b6200012e60201b60201c565b620000d0620000a9620001f460201b60201c565b6000670de0b6b3a7640000604051806020016040528060008152506200021e60201b60201c565b600a600460006001815260200190815260200160002081905550600f60046000600281526020019081526020016000208190555062000e2f565b806002908051906020019062000122929190620006b2565b5050565b600033905090565b6000600360009054906101000a900473ffffffffffffffffffffffffffffffffffffffff16905081600360006101000a81548173ffffffffffffffffffffffffffffffffffffffff021916908373ffffffffffffffffffffffffffffffffffffffff1602179055508173ffffffffffffffffffffffffffffffffffffffff168173ffffffffffffffffffffffffffffffffffffffff167f8be0079c531659141344cd1fd0a4f28419497f9722a3daafe3b4186f6b6457e060405160405180910390a35050565b6000600360009054906101000a900473ffffffffffffffffffffffffffffffffffffffff16905090565b600073ffffffffffffffffffffffffffffffffffffffff168473ffffffffffffffffffffffffffffffffffffffff160362000290576040517f08c379a00000000000000000000000000000000000000000000000000000000081526004016200028790620007e9565b60405180910390fd5b6000620002a26200012660201b60201c565b90506000620002b7856200040560201b60201c565b90506000620002cc856200040560201b60201c565b9050620002e5836000898585896200048660201b60201c565b8460008088815260200190815260200160002060008973ffffffffffffffffffffffffffffffffffffffff1673ffffffffffffffffffffffffffffffffffffffff168152602001908152602001600020600082825462000346919062000844565b925050819055508673ffffffffffffffffffffffffffffffffffffffff16600073ffffffffffffffffffffffffffffffffffffffff168473ffffffffffffffffffffffffffffffffffffffff167fc3d58168c5ae7397731d063d5bbf3d657854427343f4c083240f7aacaa2d0f628989604051620003c6929190620008b2565b60405180910390a4620003e5836000898585896200048e60201b60201c565b620003fc836000898989896200049660201b60201c565b50505050505050565b60606000600167ffffffffffffffff811115620004275762000426620008df565b5b604051908082528060200260200182016040528015620004565781602001602082028036833780820191505090505b50905082816000815181106200047157620004706200090e565b5b60200260200101818152505080915050919050565b505050505050565b505050505050565b620004c28473ffffffffffffffffffffffffffffffffffffffff166200068f60201b62000d151760201c565b1562000687578373ffffffffffffffffffffffffffffffffffffffff1663f23a6e6187878686866040518663ffffffff1660e01b81526004016200050b95949392919062000a26565b6020604051808303816000875af19250505080156200054a57506040513d601f19601f8201168201806040525081019062000547919062000af6565b60015b620005fb576200055962000b35565b806308c379a003620005bc57506200057062000b90565b806200057d5750620005be565b806040517f08c379a0000000000000000000000000000000000000000000000000000000008152600401620005b3919062000c77565b60405180910390fd5b505b6040517f08c379a0000000000000000000000000000000000000000000000000000000008152600401620005f29062000d11565b60405180910390fd5b63f23a6e6160e01b7bffffffffffffffffffffffffffffffffffffffffffffffffffffffff1916817bffffffffffffffffffffffffffffffffffffffffffffffffffffffff19161462000685576040517f08c379a00000000000000000000000000000000000000000000000000000000081526004016200067c9062000da9565b60405180910390fd5b505b505050505050565b6000808273ffffffffffffffffffffffffffffffffffffffff163b119050919050565b828054620006c09062000dfa565b90600052602060002090601f016020900481019282620006e4576000855562000730565b82601f10620006ff57805160ff191683800117855562000730565b8280016001018555821562000730579182015b828111156200072f57825182559160200191906001019062000712565b5b5090506200073f919062000743565b5090565b5b808211156200075e57600081600090555060010162000744565b5090565b600082825260208201905092915050565b7f455243313135353a206d696e7420746f20746865207a65726f2061646472657360008201527f7300000000000000000000000000000000000000000000000000000000000000602082015250565b6000620007d160218362000762565b9150620007de8262000773565b604082019050919050565b600060208201905081810360008301526200080481620007c2565b9050919050565b6000819050919050565b7f4e487b7100000000000000000000000000000000000000000000000000000000600052601160045260246000fd5b600062000851826200080b565b91506200085e836200080b565b9250827fffffffffffffffffffffffffffffffffffffffffffffffffffffffffffffffff0382111562000896576200089562000815565b5b828201905092915050565b620008ac816200080b565b82525050565b6000604082019050620008c96000830185620008a1565b620008d86020830184620008a1565b9392505050565b7f4e487b7100000000000000000000000000000000000000000000000000000000600052604160045260246000fd5b7f4e487b7100000000000000000000000000000000000000000000000000000000600052603260045260246000fd5b600073ffffffffffffffffffffffffffffffffffffffff82169050919050565b60006200096a826200093d565b9050919050565b6200097c816200095d565b82525050565b600081519050919050565b600082825260208201905092915050565b60005b83811015620009be578082015181840152602081019050620009a1565b83811115620009ce576000848401525b50505050565b6000601f19601f8301169050919050565b6000620009f28262000982565b620009fe81856200098d565b935062000a108185602086016200099e565b62000a1b81620009d4565b840191505092915050565b600060a08201905062000a3d600083018862000971565b62000a4c602083018762000971565b62000a5b6040830186620008a1565b62000a6a6060830185620008a1565b818103608083015262000a7e8184620009e5565b90509695505050505050565b6000604051905090565b600080fd5b60007fffffffff0000000000000000000000000000000000000000000000000000000082169050919050565b62000ad08162000a99565b811462000adc57600080fd5b50565b60008151905062000af08162000ac5565b92915050565b60006020828403121562000b0f5762000b0e62000a94565b5b600062000b1f8482850162000adf565b91505092915050565b60008160e01c9050919050565b600060033d111562000b575760046000803e62000b5460005162000b28565b90505b90565b62000b6582620009d4565b810181811067ffffffffffffffff8211171562000b875762000b86620008df565b5b80604052505050565b600060443d1062000c285762000ba562000a8a565b60043d036004823e80513d602482011167ffffffffffffffff8211171562000bcf57505062000c28565b808201805167ffffffffffffffff81111562000bef575050505062000c28565b80602083010160043d03850181111562000c0e57505050505062000c28565b62000c1f8260200185018662000b5a565b82955050505050505b90565b600081519050919050565b600062000c438262000c2b565b62000c4f818562000762565b935062000c618185602086016200099e565b62000c6c81620009d4565b840191505092915050565b6000602082019050818103600083015262000c93818462000c36565b905092915050565b7f455243313135353a207472616e7366657220746f206e6f6e204552433131353560008201527f526563656976657220696d706c656d656e746572000000000000000000000000602082015250565b600062000cf960348362000762565b915062000d068262000c9b565b604082019050919050565b6000602082019050818103600083015262000d2c8162000cea565b9050919050565b7f455243313135353a204552433131353552656365697665722072656a6563746560008201527f6420746f6b656e73000000000000000000000000000000000000000000000000602082015250565b600062000d9160288362000762565b915062000d9e8262000d33565b604082019050919050565b6000602082019050818103600083015262000dc48162000d82565b9050919050565b7f4e487b7100000000000000000000000000000000000000000000000000000000600052602260045260246000fd5b6000600282049050600182168062000e1357607f821691505b60208210810362000e295762000e2862000dcb565b5b50919050565b6136508062000e3f6000396000f3fe608060405234801561001057600080fd5b50600436106101415760003560e01c80638da5cb5b116100b8578063d67a774a1161007c578063d67a774a1461034e578063dd53960b1461036a578063e985e9c51461039a578063f242432a146103ca578063f2fde38b146103e6578063f9b1c6071461040257610141565b80638da5cb5b146102be5780639951d8f5146102dc5780639c716ab2146102fa578063a22cb46514610316578063a57922d81461033257610141565b8063329844e51161010a578063329844e5146102105780633e4bee381461022c5780634cff66e91461024a5780634e1273f4146102665780635b2725ed14610296578063715018a6146102b457610141565b8062fdd58e1461014657806301ffc9a7146101765780630e89341c146101a657806313dc989f146101d65780632eb2c2d6146101f4575b600080fd5b610160600480360381019061015b9190611eec565b61041e565b60405161016d9190611f3b565b60405180910390f35b610190600480360381019061018b9190611fae565b6104e6565b60405161019d9190611ff6565b60405180910390f35b6101c060048036038101906101bb9190612011565b6105c8565b6040516101cd91906120d7565b60405180910390f35b6101de61065c565b6040516101eb9190611f3b565b60405180910390f35b61020e600480360381019061020991906122f6565b610661565b005b61022a600480360381019061022591906123c5565b610702565b005b610234610732565b6040516102419190611f3b565b60405180910390f35b610264600480360381019061025f9190612405565b610737565b005b610280600480360381019061027b9190612508565b610835565b60405161028d919061263e565b60405180910390f35b61029e61094e565b6040516102ab9190611f3b565b60405180910390f35b6102bc610953565b005b6102c6610967565b6040516102d3919061266f565b60405180910390f35b6102e4610991565b6040516102f19190611f3b565b60405180910390f35b610314600480360381019061030f919061268a565b610997565b005b610330600480360381019061032b91906126e3565b610a31565b005b61034c600480360381019061034791906123c5565b610a47565b005b61036860048036038101906103639190612405565b610a6f565b005b610384600480360381019061037f9190612011565b610ad6565b6040516103919190611f3b565b60405180910390f35b6103b460048036038101906103af9190612723565b610b35565b6040516103c19190611ff6565b60405180910390f35b6103e460048036038101906103df9190612763565b610bc9565b005b61040060048036038101906103fb919061268a565b610c6a565b005b61041c600480360381019061041791906123c5565b610ced565b005b60008073ffffffffffffffffffffffffffffffffffffffff168373ffffffffffffffffffffffffffffffffffffffff160361048e576040517f08c379a00000000000000000000000000000000000000000000000000000000081526004016104859061286c565b60405180910390fd5b60008083815260200190815260200160002060008473ffffffffffffffffffffffffffffffffffffffff1673ffffffffffffffffffffffffffffffffffffffff16815260200190815260200160002054905092915050565b60007fd9b67a26000000000000000000000000000000000000000000000000000000007bffffffffffffffffffffffffffffffffffffffffffffffffffffffff1916827bffffffffffffffffffffffffffffffffffffffffffffffffffffffff191614806105b157507f0e89341c000000000000000000000000000000000000000000000000000000007bffffffffffffffffffffffffffffffffffffffffffffffffffffffff1916827bffffffffffffffffffffffffffffffffffffffffffffffffffffffff1916145b806105c157506105c082610d38565b5b9050919050565b6060600280546105d7906128bb565b80601f0160208091040260200160405190810160405280929190818152602001828054610603906128bb565b80156106505780601f1061062557610100808354040283529160200191610650565b820191906000526020600020905b81548152906001019060200180831161063357829003601f168201915b50505050509050919050565b600181565b610669610da2565b73ffffffffffffffffffffffffffffffffffffffff168573ffffffffffffffffffffffffffffffffffffffff1614806106af57506106ae856106a9610da2565b610b35565b5b6106ee576040517f08c379a00000000000000000000000000000000000000000000000000000000081526004016106e59061295e565b60405180910390fd5b6106fb8585858585610daa565b5050505050565b61070a6110cb565b61072e610715610967565b8260008560405180602001604052806000815250610bc9565b5050565b600081565b6000820361077a576040517f08c379a0000000000000000000000000000000000000000000000000000000008152600401610771906129ca565b60405180910390fd5b6103e782036107be576040517f08c379a00000000000000000000000000000000000000000000000000000000081526004016107b590612a36565b60405180910390fd5b6107c9338383611149565b6108316107d4610967565b3360008460046000888152602001908152602001600020546107f69190612a85565b6040518060400160405280600481526020017f307830300000000000000000000000000000000000000000000000000000000081525061138f565b5050565b6060815183511461087b576040517f08c379a000000000000000000000000000000000000000000000000000000000815260040161087290612b51565b60405180910390fd5b6000835167ffffffffffffffff811115610898576108976120fe565b5b6040519080825280602002602001820160405280156108c65781602001602082028036833780820191505090505b50905060005b8451811015610943576109138582815181106108eb576108ea612b71565b5b602002602001015185838151811061090657610905612b71565b5b602002602001015161041e565b82828151811061092657610925612b71565b5b6020026020010181815250508061093c90612ba0565b90506108cc565b508091505092915050565b600281565b61095b6110cb565b610965600061162a565b565b6000600360009054906101000a900473ffffffffffffffffffffffffffffffffffffffff16905090565b6103e781565b61099f6110cb565b60001515600560009054906101000a900460ff161515146109f5576040517f08c379a00000000000000000000000000000000000000000000000000000000081526004016109ec90612c34565b60405180910390fd5b6001600560006101000a81548160ff021916908315150217905550610a2e816103e76001604051806020016040528060008152506116f0565b50565b610a43610a3c610da2565b83836118a0565b5050565b610a4f6110cb565b610a6b81600284604051806020016040528060008152506116f0565b5050565b610a776110cb565b60008214610aba576040517f08c379a0000000000000000000000000000000000000000000000000000000008152600401610ab190612ca0565b60405180910390fd5b8060046000848152602001908152602001600020819055505050565b6000808214610b1a576040517f08c379a0000000000000000000000000000000000000000000000000000000008152600401610b1190612d0c565b60405180910390fd5b60046000838152602001908152602001600020549050919050565b6000600160008473ffffffffffffffffffffffffffffffffffffffff1673ffffffffffffffffffffffffffffffffffffffff16815260200190815260200160002060008373ffffffffffffffffffffffffffffffffffffffff1673ffffffffffffffffffffffffffffffffffffffff16815260200190815260200160002060009054906101000a900460ff16905092915050565b610bd1610da2565b73ffffffffffffffffffffffffffffffffffffffff168573ffffffffffffffffffffffffffffffffffffffff161480610c175750610c1685610c11610da2565b610b35565b5b610c56576040517f08c379a0000000000000000000000000000000000000000000000000000000008152600401610c4d9061295e565b60405180910390fd5b610c63858585858561138f565b5050505050565b610c726110cb565b600073ffffffffffffffffffffffffffffffffffffffff168173ffffffffffffffffffffffffffffffffffffffff1603610ce1576040517f08c379a0000000000000000000000000000000000000000000000000000000008152600401610cd890612d9e565b60405180910390fd5b610cea8161162a565b50565b610cf56110cb565b610d1181600184604051806020016040528060008152506116f0565b5050565b6000808273ffffffffffffffffffffffffffffffffffffffff163b119050919050565b60007f01ffc9a7000000000000000000000000000000000000000000000000000000007bffffffffffffffffffffffffffffffffffffffffffffffffffffffff1916827bffffffffffffffffffffffffffffffffffffffffffffffffffffffff1916149050919050565b600033905090565b8151835114610dee576040517f08c379a0000000000000000000000000000000000000000000000000000000008152600401610de590612e30565b60405180910390fd5b600073ffffffffffffffffffffffffffffffffffffffff168473ffffffffffffffffffffffffffffffffffffffff1603610e5d576040517f08c379a0000000000000000000000000000000000000000000000000000000008152600401610e5490612ec2565b60405180910390fd5b6000610e67610da2565b9050610e77818787878787611a0c565b60005b8451811015611028576000858281518110610e9857610e97612b71565b5b602002602001015190506000858381518110610eb757610eb6612b71565b5b60200260200101519050600080600084815260200190815260200160002060008b73ffffffffffffffffffffffffffffffffffffffff1673ffffffffffffffffffffffffffffffffffffffff16815260200190815260200160002054905081811015610f58576040517f08c379a0000000000000000000000000000000000000000000000000000000008152600401610f4f90612f54565b60405180910390fd5b81810360008085815260200190815260200160002060008c73ffffffffffffffffffffffffffffffffffffffff1673ffffffffffffffffffffffffffffffffffffffff168152602001908152602001600020819055508160008085815260200190815260200160002060008b73ffffffffffffffffffffffffffffffffffffffff1673ffffffffffffffffffffffffffffffffffffffff168152602001908152602001600020600082825461100d9190612f74565b925050819055505050508061102190612ba0565b9050610e7a565b508473ffffffffffffffffffffffffffffffffffffffff168673ffffffffffffffffffffffffffffffffffffffff168273ffffffffffffffffffffffffffffffffffffffff167f4a39dc06d4c0dbc64b70af90fd698a233a518aa5d07e595d983b8c0526c8f7fb878760405161109f929190612fca565b60405180910390a46110b5818787878787611a14565b6110c3818787878787611a1c565b505050505050565b6110d3610da2565b73ffffffffffffffffffffffffffffffffffffffff166110f1610967565b73ffffffffffffffffffffffffffffffffffffffff1614611147576040517f08c379a000000000000000000000000000000000000000000000000000000000815260040161113e9061304d565b60405180910390fd5b565b600073ffffffffffffffffffffffffffffffffffffffff168373ffffffffffffffffffffffffffffffffffffffff16036111b8576040517f08c379a00000000000000000000000000000000000000000000000000000000081526004016111af906130df565b60405180910390fd5b60006111c2610da2565b905060006111cf84611bf3565b905060006111dc84611bf3565b90506111fc83876000858560405180602001604052806000815250611a0c565b600080600087815260200190815260200160002060008873ffffffffffffffffffffffffffffffffffffffff1673ffffffffffffffffffffffffffffffffffffffff16815260200190815260200160002054905084811015611293576040517f08c379a000000000000000000000000000000000000000000000000000000000815260040161128a90613171565b60405180910390fd5b84810360008088815260200190815260200160002060008973ffffffffffffffffffffffffffffffffffffffff1673ffffffffffffffffffffffffffffffffffffffff16815260200190815260200160002081905550600073ffffffffffffffffffffffffffffffffffffffff168773ffffffffffffffffffffffffffffffffffffffff168573ffffffffffffffffffffffffffffffffffffffff167fc3d58168c5ae7397731d063d5bbf3d657854427343f4c083240f7aacaa2d0f628989604051611360929190613191565b60405180910390a461138684886000868660405180602001604052806000815250611a14565b50505050505050565b600073ffffffffffffffffffffffffffffffffffffffff168473ffffffffffffffffffffffffffffffffffffffff16036113fe576040517f08c379a00000000000000000000000000000000000000000000000000000000081526004016113f590612ec2565b60405180910390fd5b6000611408610da2565b9050600061141585611bf3565b9050600061142285611bf3565b9050611432838989858589611a0c565b600080600088815260200190815260200160002060008a73ffffffffffffffffffffffffffffffffffffffff1673ffffffffffffffffffffffffffffffffffffffff168152602001908152602001600020549050858110156114c9576040517f08c379a00000000000000000000000000000000000000000000000000000000081526004016114c090612f54565b60405180910390fd5b85810360008089815260200190815260200160002060008b73ffffffffffffffffffffffffffffffffffffffff1673ffffffffffffffffffffffffffffffffffffffff168152602001908152602001600020819055508560008089815260200190815260200160002060008a73ffffffffffffffffffffffffffffffffffffffff1673ffffffffffffffffffffffffffffffffffffffff168152602001908152602001600020600082825461157e9190612f74565b925050819055508773ffffffffffffffffffffffffffffffffffffffff168973ffffffffffffffffffffffffffffffffffffffff168573ffffffffffffffffffffffffffffffffffffffff167fc3d58168c5ae7397731d063d5bbf3d657854427343f4c083240f7aacaa2d0f628a8a6040516115fb929190613191565b60405180910390a4611611848a8a86868a611a14565b61161f848a8a8a8a8a611c6d565b505050505050505050565b6000600360009054906101000a900473ffffffffffffffffffffffffffffffffffffffff16905081600360006101000a81548173ffffffffffffffffffffffffffffffffffffffff021916908373ffffffffffffffffffffffffffffffffffffffff1602179055508173ffffffffffffffffffffffffffffffffffffffff168173ffffffffffffffffffffffffffffffffffffffff167f8be0079c531659141344cd1fd0a4f28419497f9722a3daafe3b4186f6b6457e060405160405180910390a35050565b600073ffffffffffffffffffffffffffffffffffffffff168473ffffffffffffffffffffffffffffffffffffffff160361175f576040517f08c379a00000000000000000000000000000000000000000000000000000000081526004016117569061322c565b60405180910390fd5b6000611769610da2565b9050600061177685611bf3565b9050600061178385611bf3565b905061179483600089858589611a0c565b8460008088815260200190815260200160002060008973ffffffffffffffffffffffffffffffffffffffff1673ffffffffffffffffffffffffffffffffffffffff16815260200190815260200160002060008282546117f39190612f74565b925050819055508673ffffffffffffffffffffffffffffffffffffffff16600073ffffffffffffffffffffffffffffffffffffffff168473ffffffffffffffffffffffffffffffffffffffff167fc3d58168c5ae7397731d063d5bbf3d657854427343f4c083240f7aacaa2d0f628989604051611871929190613191565b60405180910390a461188883600089858589611a14565b61189783600089898989611c6d565b50505050505050565b8173ffffffffffffffffffffffffffffffffffffffff168373ffffffffffffffffffffffffffffffffffffffff160361190e576040517f08c379a0000000000000000000000000000000000000000000000000000000008152600401611905906132be565b60405180910390fd5b80600160008573ffffffffffffffffffffffffffffffffffffffff1673ffffffffffffffffffffffffffffffffffffffff16815260200190815260200160002060008473ffffffffffffffffffffffffffffffffffffffff1673ffffffffffffffffffffffffffffffffffffffff16815260200190815260200160002060006101000a81548160ff0219169083151502179055508173ffffffffffffffffffffffffffffffffffffffff168373ffffffffffffffffffffffffffffffffffffffff167f17307eab39ab6107e8899845ad3d59bd9653f200f220920489ca2b5937696c31836040516119ff9190611ff6565b60405180910390a3505050565b505050505050565b505050505050565b611a3b8473ffffffffffffffffffffffffffffffffffffffff16610d15565b15611beb578373ffffffffffffffffffffffffffffffffffffffff1663bc197c8187878686866040518663ffffffff1660e01b8152600401611a81959493929190613333565b6020604051808303816000875af1925050508015611abd57506040513d601f19601f82011682018060405250810190611aba91906133b0565b60015b611b6257611ac96133ea565b806308c379a003611b255750611add61340c565b80611ae85750611b27565b806040517f08c379a0000000000000000000000000000000000000000000000000000000008152600401611b1c91906120d7565b60405180910390fd5b505b6040517f08c379a0000000000000000000000000000000000000000000000000000000008152600401611b599061350e565b60405180910390fd5b63bc197c8160e01b7bffffffffffffffffffffffffffffffffffffffffffffffffffffffff1916817bffffffffffffffffffffffffffffffffffffffffffffffffffffffff191614611be9576040517f08c379a0000000000000000000000000000000000000000000000000000000008152600401611be0906135a0565b60405180910390fd5b505b505050505050565b60606000600167ffffffffffffffff811115611c1257611c116120fe565b5b604051908082528060200260200182016040528015611c405781602001602082028036833780820191505090505b5090508281600081518110611c5857611c57612b71565b5b60200260200101818152505080915050919050565b611c8c8473ffffffffffffffffffffffffffffffffffffffff16610d15565b15611e3c578373ffffffffffffffffffffffffffffffffffffffff1663f23a6e6187878686866040518663ffffffff1660e01b8152600401611cd29594939291906135c0565b6020604051808303816000875af1925050508015611d0e57506040513d601f19601f82011682018060405250810190611d0b91906133b0565b60015b611db357611d1a6133ea565b806308c379a003611d765750611d2e61340c565b80611d395750611d78565b806040517f08c379a0000000000000000000000000000000000000000000000000000000008152600401611d6d91906120d7565b60405180910390fd5b505b6040517f08c379a0000000000000000000000000000000000000000000000000000000008152600401611daa9061350e565b60405180910390fd5b63f23a6e6160e01b7bffffffffffffffffffffffffffffffffffffffffffffffffffffffff1916817bffffffffffffffffffffffffffffffffffffffffffffffffffffffff191614611e3a576040517f08c379a0000000000000000000000000000000000000000000000000000000008152600401611e31906135a0565b60405180910390fd5b505b505050505050565b6000604051905090565b600080fd5b600080fd5b600073ffffffffffffffffffffffffffffffffffffffff82169050919050565b6000611e8382611e58565b9050919050565b611e9381611e78565b8114611e9e57600080fd5b50565b600081359050611eb081611e8a565b92915050565b6000819050919050565b611ec981611eb6565b8114611ed457600080fd5b50565b600081359050611ee681611ec0565b92915050565b60008060408385031215611f0357611f02611e4e565b5b6000611f1185828601611ea1565b9250506020611f2285828601611ed7565b9150509250929050565b611f3581611eb6565b82525050565b6000602082019050611f506000830184611f2c565b92915050565b60007fffffffff0000000000000000000000000000000000000000000000000000000082169050919050565b611f8b81611f56565b8114611f9657600080fd5b50565b600081359050611fa881611f82565b92915050565b600060208284031215611fc457611fc3611e4e565b5b6000611fd284828501611f99565b91505092915050565b60008115159050919050565b611ff081611fdb565b82525050565b600060208201905061200b6000830184611fe7565b92915050565b60006020828403121561202757612026611e4e565b5b600061203584828501611ed7565b91505092915050565b600081519050919050565b600082825260208201905092915050565b60005b8381101561207857808201518184015260208101905061205d565b83811115612087576000848401525b50505050565b6000601f19601f8301169050919050565b60006120a98261203e565b6120b38185612049565b93506120c381856020860161205a565b6120cc8161208d565b840191505092915050565b600060208201905081810360008301526120f1818461209e565b905092915050565b600080fd5b7f4e487b7100000000000000000000000000000000000000000000000000000000600052604160045260246000fd5b6121368261208d565b810181811067ffffffffffffffff82111715612155576121546120fe565b5b80604052505050565b6000612168611e44565b9050612174828261212d565b919050565b600067ffffffffffffffff821115612194576121936120fe565b5b602082029050602081019050919050565b600080fd5b60006121bd6121b884612179565b61215e565b905080838252602082019050602084028301858111156121e0576121df6121a5565b5b835b8181101561220957806121f58882611ed7565b8452602084019350506020810190506121e2565b5050509392505050565b600082601f830112612228576122276120f9565b5b81356122388482602086016121aa565b91505092915050565b600080fd5b600067ffffffffffffffff821115612261576122606120fe565b5b61226a8261208d565b9050602081019050919050565b82818337600083830152505050565b600061229961229484612246565b61215e565b9050828152602081018484840111156122b5576122b4612241565b5b6122c0848285612277565b509392505050565b600082601f8301126122dd576122dc6120f9565b5b81356122ed848260208601612286565b91505092915050565b600080600080600060a0868803121561231257612311611e4e565b5b600061232088828901611ea1565b955050602061233188828901611ea1565b945050604086013567ffffffffffffffff81111561235257612351611e53565b5b61235e88828901612213565b935050606086013567ffffffffffffffff81111561237f5761237e611e53565b5b61238b88828901612213565b925050608086013567ffffffffffffffff8111156123ac576123ab611e53565b5b6123b8888289016122c8565b9150509295509295909350565b600080604083850312156123dc576123db611e4e565b5b60006123ea85828601611ed7565b92505060206123fb85828601611ea1565b9150509250929050565b6000806040838503121561241c5761241b611e4e565b5b600061242a85828601611ed7565b925050602061243b85828601611ed7565b9150509250929050565b600067ffffffffffffffff8211156124605761245f6120fe565b5b602082029050602081019050919050565b600061248461247f84612445565b61215e565b905080838252602082019050602084028301858111156124a7576124a66121a5565b5b835b818110156124d057806124bc8882611ea1565b8452602084019350506020810190506124a9565b5050509392505050565b600082601f8301126124ef576124ee6120f9565b5b81356124ff848260208601612471565b91505092915050565b6000806040838503121561251f5761251e611e4e565b5b600083013567ffffffffffffffff81111561253d5761253c611e53565b5b612549858286016124da565b925050602083013567ffffffffffffffff81111561256a57612569611e53565b5b61257685828601612213565b9150509250929050565b600081519050919050565b600082825260208201905092915050565b6000819050602082019050919050565b6125b581611eb6565b82525050565b60006125c783836125ac565b60208301905092915050565b6000602082019050919050565b60006125eb82612580565b6125f5818561258b565b93506126008361259c565b8060005b8381101561263157815161261888826125bb565b9750612623836125d3565b925050600181019050612604565b5085935050505092915050565b6000602082019050818103600083015261265881846125e0565b905092915050565b61266981611e78565b82525050565b60006020820190506126846000830184612660565b92915050565b6000602082840312156126a05761269f611e4e565b5b60006126ae84828501611ea1565b91505092915050565b6126c081611fdb565b81146126cb57600080fd5b50565b6000813590506126dd816126b7565b92915050565b600080604083850312156126fa576126f9611e4e565b5b600061270885828601611ea1565b9250506020612719858286016126ce565b9150509250929050565b6000806040838503121561273a57612739611e4e565b5b600061274885828601611ea1565b925050602061275985828601611ea1565b9150509250929050565b600080600080600060a0868803121561277f5761277e611e4e565b5b600061278d88828901611ea1565b955050602061279e88828901611ea1565b94505060406127af88828901611ed7565b93505060606127c088828901611ed7565b925050608086013567ffffffffffffffff8111156127e1576127e0611e53565b5b6127ed888289016122c8565b9150509295509295909350565b7f455243313135353a2061646472657373207a65726f206973206e6f742061207660008201527f616c6964206f776e657200000000000000000000000000000000000000000000602082015250565b6000612856602a83612049565b9150612861826127fa565b604082019050919050565b6000602082019050818103600083015261288581612849565b9050919050565b7f4e487b7100000000000000000000000000000000000000000000000000000000600052602260045260246000fd5b600060028204905060018216806128d357607f821691505b6020821081036128e6576128e561288c565b5b50919050565b7f455243313135353a2063616c6c6572206973206e6f7420746f6b656e206f776e60008201527f6572206e6f7220617070726f7665640000000000000000000000000000000000602082015250565b6000612948602f83612049565b9150612953826128ec565b604082019050919050565b600060208201905081810360008301526129778161293b565b9050919050565b7f43616e6e6f7420747261646520676f6c64000000000000000000000000000000600082015250565b60006129b4601183612049565b91506129bf8261297e565b602082019050919050565b600060208201905081810360008301526129e3816129a7565b9050919050565b7f43616e6e6f74207472616465206c6567656e646172792061726d6f7200000000600082015250565b6000612a20601c83612049565b9150612a2b826129ea565b602082019050919050565b60006020820190508181036000830152612a4f81612a13565b9050919050565b7f4e487b7100000000000000000000000000000000000000000000000000000000600052601160045260246000fd5b6000612a9082611eb6565b9150612a9b83611eb6565b9250817fffffffffffffffffffffffffffffffffffffffffffffffffffffffffffffffff0483118215151615612ad457612ad3612a56565b5b828202905092915050565b7f455243313135353a206163636f756e747320616e6420696473206c656e67746860008201527f206d69736d617463680000000000000000000000000000000000000000000000602082015250565b6000612b3b602983612049565b9150612b4682612adf565b604082019050919050565b60006020820190508181036000830152612b6a81612b2e565b9050919050565b7f4e487b7100000000000000000000000000000000000000000000000000000000600052603260045260246000fd5b6000612bab82611eb6565b91507fffffffffffffffffffffffffffffffffffffffffffffffffffffffffffffffff8203612bdd57612bdc612a56565b5b600182019050919050565b7f43616e6e6f74206d696e74206d6f7265207468616e2031000000000000000000600082015250565b6000612c1e601783612049565b9150612c2982612be8565b602082019050919050565b60006020820190508181036000830152612c4d81612c11565b9050919050565b7f43616e6e6f742073657420707269636520666f7220676f6c6400000000000000600082015250565b6000612c8a601983612049565b9150612c9582612c54565b602082019050919050565b60006020820190508181036000830152612cb981612c7d565b9050919050565b7f43616e6e6f742067657420707269636520666f7220676f6c6400000000000000600082015250565b6000612cf6601983612049565b9150612d0182612cc0565b602082019050919050565b60006020820190508181036000830152612d2581612ce9565b9050919050565b7f4f776e61626c653a206e6577206f776e657220697320746865207a65726f206160008201527f6464726573730000000000000000000000000000000000000000000000000000602082015250565b6000612d88602683612049565b9150612d9382612d2c565b604082019050919050565b60006020820190508181036000830152612db781612d7b565b9050919050565b7f455243313135353a2069647320616e6420616d6f756e7473206c656e6774682060008201527f6d69736d61746368000000000000000000000000000000000000000000000000602082015250565b6000612e1a602883612049565b9150612e2582612dbe565b604082019050919050565b60006020820190508181036000830152612e4981612e0d565b9050919050565b7f455243313135353a207472616e7366657220746f20746865207a65726f20616460008201527f6472657373000000000000000000000000000000000000000000000000000000602082015250565b6000612eac602583612049565b9150612eb782612e50565b604082019050919050565b60006020820190508181036000830152612edb81612e9f565b9050919050565b7f455243313135353a20696e73756666696369656e742062616c616e636520666f60008201527f72207472616e7366657200000000000000000000000000000000000000000000602082015250565b6000612f3e602a83612049565b9150612f4982612ee2565b604082019050919050565b60006020820190508181036000830152612f6d81612f31565b9050919050565b6000612f7f82611eb6565b9150612f8a83611eb6565b9250827fffffffffffffffffffffffffffffffffffffffffffffffffffffffffffffffff03821115612fbf57612fbe612a56565b5b828201905092915050565b60006040820190508181036000830152612fe481856125e0565b90508181036020830152612ff881846125e0565b90509392505050565b7f4f776e61626c653a2063616c6c6572206973206e6f7420746865206f776e6572600082015250565b6000613037602083612049565b915061304282613001565b602082019050919050565b600060208201905081810360008301526130668161302a565b9050919050565b7f455243313135353a206275726e2066726f6d20746865207a65726f206164647260008201527f6573730000000000000000000000000000000000000000000000000000000000602082015250565b60006130c9602383612049565b91506130d48261306d565b604082019050919050565b600060208201905081810360008301526130f8816130bc565b9050919050565b7f455243313135353a206275726e20616d6f756e7420657863656564732062616c60008201527f616e636500000000000000000000000000000000000000000000000000000000602082015250565b600061315b602483612049565b9150613166826130ff565b604082019050919050565b6000602082019050818103600083015261318a8161314e565b9050919050565b60006040820190506131a66000830185611f2c565b6131b36020830184611f2c565b9392505050565b7f455243313135353a206d696e7420746f20746865207a65726f2061646472657360008201527f7300000000000000000000000000000000000000000000000000000000000000602082015250565b6000613216602183612049565b9150613221826131ba565b604082019050919050565b6000602082019050818103600083015261324581613209565b9050919050565b7f455243313135353a2073657474696e6720617070726f76616c2073746174757360008201527f20666f722073656c660000000000000000000000000000000000000000000000602082015250565b60006132a8602983612049565b91506132b38261324c565b604082019050919050565b600060208201905081810360008301526132d78161329b565b9050919050565b600081519050919050565b600082825260208201905092915050565b6000613305826132de565b61330f81856132e9565b935061331f81856020860161205a565b6133288161208d565b840191505092915050565b600060a0820190506133486000830188612660565b6133556020830187612660565b818103604083015261336781866125e0565b9050818103606083015261337b81856125e0565b9050818103608083015261338f81846132fa565b90509695505050505050565b6000815190506133aa81611f82565b92915050565b6000602082840312156133c6576133c5611e4e565b5b60006133d48482850161339b565b91505092915050565b60008160e01c9050919050565b600060033d11156134095760046000803e6134066000516133dd565b90505b90565b600060443d106134995761341e611e44565b60043d036004823e80513d602482011167ffffffffffffffff82111715613446575050613499565b808201805167ffffffffffffffff8111156134645750505050613499565b80602083010160043d038501811115613481575050505050613499565b6134908260200185018661212d565b82955050505050505b90565b7f455243313135353a207472616e7366657220746f206e6f6e204552433131353560008201527f526563656976657220696d706c656d656e746572000000000000000000000000602082015250565b60006134f8603483612049565b91506135038261349c565b604082019050919050565b60006020820190508181036000830152613527816134eb565b9050919050565b7f455243313135353a204552433131353552656365697665722072656a6563746560008201527f6420746f6b656e73000000000000000000000000000000000000000000000000602082015250565b600061358a602883612049565b91506135958261352e565b604082019050919050565b600060208201905081810360008301526135b98161357d565b9050919050565b600060a0820190506135d56000830188612660565b6135e26020830187612660565b6135ef6040830186611f2c565b6135fc6060830185611f2c565b818103608083015261360e81846132fa565b9050969550505050505056fea2646970667358221220488c4a8cf1141c1c856f0c7cd77b8950f872f6509b9bee2bdb7b4d387f3eb61c64736f6c634300080e0033",
  "linkReferences": {},
  "deployedLinkReferences": {}
}