{
  "_format": "hh-sol-artifact-1",
  "contractName": "CreateCharacter",
  "sourceName": "contracts/CreateCharacter.sol",
  "abi": [
    {
      "inputs": [],
      "stateMutability": "payable",
      "type": "constructor"
    },
    {
      "anonymous": false,
      "inputs": [
        {
          "indexed": true,
          "internalType": "address",
          "name": "owner",
          "type": "address"
        },
        {
          "indexed": true,
          "internalType": "address",
          "name": "approved",
          "type": "address"
        },
        {
          "indexed": true,
          "internalType": "uint256",
          "name": "tokenId",
          "type": "uint256"
        }
      ],
      "name": "Approval",
      "type": "event"
    },
    {
      "anonymous": false,
      "inputs": [
        {
          "indexed": true,
          "internalType": "address",
          "name": "owner",
          "type": "address"
        },
        {
          "indexed": true,
          "internalType": "address",
          "name": "operator",
          "type": "address"
        },
        {
          "indexed": false,
          "internalType": "bool",
          "name": "approved",
          "type": "bool"
        }
      ],
      "name": "ApprovalForAll",
      "type": "event"
    },
    {
      "anonymous": false,
      "inputs": [
        {
          "indexed": true,
          "internalType": "address",
          "name": "previousOwner",
          "type": "address"
        },
        {
          "indexed": true,
          "internalType": "address",
          "name": "newOwner",
          "type": "address"
        }
      ],
      "name": "OwnershipTransferred",
      "type": "event"
    },
    {
      "anonymous": false,
      "inputs": [
        {
          "indexed": true,
          "internalType": "address",
          "name": "from",
          "type": "address"
        },
        {
          "indexed": true,
          "internalType": "address",
          "name": "to",
          "type": "address"
        },
        {
          "indexed": true,
          "internalType": "uint256",
          "name": "tokenId",
          "type": "uint256"
        }
      ],
      "name": "Transfer",
      "type": "event"
    },
    {
      "inputs": [
        {
          "internalType": "address",
          "name": "to",
          "type": "address"
        },
        {
          "internalType": "uint256",
          "name": "tokenId",
          "type": "uint256"
        }
      ],
      "name": "approve",
      "outputs": [],
      "stateMutability": "nonpayable",
      "type": "function"
    },
    {
      "inputs": [
        {
          "internalType": "address",
          "name": "owner",
          "type": "address"
        }
      ],
      "name": "balanceOf",
      "outputs": [
        {
          "internalType": "uint256",
          "name": "",
          "type": "uint256"
        }
      ],
      "stateMutability": "view",
      "type": "function"
    },
    {
      "inputs": [
        {
          "internalType": "address",
          "name": "",
          "type": "address"
        },
        {
          "internalType": "uint256",
          "name": "",
          "type": "uint256"
        }
      ],
      "name": "characterNames",
      "outputs": [
        {
          "internalType": "string",
          "name": "",
          "type": "string"
        }
      ],
      "stateMutability": "view",
      "type": "function"
    },
    {
      "inputs": [
        {
          "internalType": "address",
          "name": "_address",
          "type": "address"
        }
      ],
      "name": "charactersOwnedByAddress",
      "outputs": [
        {
          "internalType": "string[]",
          "name": "",
          "type": "string[]"
        }
      ],
      "stateMutability": "view",
      "type": "function"
    },
    {
      "inputs": [
        {
          "internalType": "uint256",
          "name": "newItemId",
          "type": "uint256"
        },
        {
          "internalType": "string",
          "name": "_charName",
          "type": "string"
        }
      ],
      "name": "createCharacter",
      "outputs": [],
      "stateMutability": "payable",
      "type": "function"
    },
    {
      "inputs": [
        {
          "internalType": "uint256",
          "name": "tokenId",
          "type": "uint256"
        }
      ],
      "name": "getApproved",
      "outputs": [
        {
          "internalType": "address",
          "name": "",
          "type": "address"
        }
      ],
      "stateMutability": "view",
      "type": "function"
    },
    {
      "inputs": [
        {
          "internalType": "address",
          "name": "owner",
          "type": "address"
        },
        {
          "internalType": "address",
          "name": "operator",
          "type": "address"
        }
      ],
      "name": "isApprovedForAll",
      "outputs": [
        {
          "internalType": "bool",
          "name": "",
          "type": "bool"
        }
      ],
      "stateMutability": "view",
      "type": "function"
    },
    {
      "inputs": [],
      "name": "isCharCreationAllowed",
      "outputs": [
        {
          "internalType": "bool",
          "name": "",
          "type": "bool"
        }
      ],
      "stateMutability": "view",
      "type": "function"
    },
    {
      "inputs": [],
      "name": "maxPerWallet",
      "outputs": [
        {
          "internalType": "uint256",
          "name": "",
          "type": "uint256"
        }
      ],
      "stateMutability": "view",
      "type": "function"
    },
    {
      "inputs": [],
      "name": "mintPrice",
      "outputs": [
        {
          "internalType": "uint256",
          "name": "",
          "type": "uint256"
        }
      ],
      "stateMutability": "view",
      "type": "function"
    },
    {
      "inputs": [],
      "name": "name",
      "outputs": [
        {
          "internalType": "string",
          "name": "",
          "type": "string"
        }
      ],
      "stateMutability": "view",
      "type": "function"
    },
    {
      "inputs": [],
      "name": "owner",
      "outputs": [
        {
          "internalType": "address",
          "name": "",
          "type": "address"
        }
      ],
      "stateMutability": "view",
      "type": "function"
    },
    {
      "inputs": [
        {
          "internalType": "uint256",
          "name": "tokenId",
          "type": "uint256"
        }
      ],
      "name": "ownerOf",
      "outputs": [
        {
          "internalType": "address",
          "name": "",
          "type": "address"
        }
      ],
      "stateMutability": "view",
      "type": "function"
    },
    {
      "inputs": [],
      "name": "renounceOwnership",
      "outputs": [],
      "stateMutability": "nonpayable",
      "type": "function"
    },
    {
      "inputs": [
        {
          "internalType": "address",
          "name": "from",
          "type": "address"
        },
        {
          "internalType": "address",
          "name": "to",
          "type": "address"
        },
        {
          "internalType": "uint256",
          "name": "tokenId",
          "type": "uint256"
        }
      ],
      "name": "safeTransferFrom",
      "outputs": [],
      "stateMutability": "nonpayable",
      "type": "function"
    },
    {
      "inputs": [
        {
          "internalType": "address",
          "name": "from",
          "type": "address"
        },
        {
          "internalType": "address",
          "name": "to",
          "type": "address"
        },
        {
          "internalType": "uint256",
          "name": "tokenId",
          "type": "uint256"
        },
        {
          "internalType": "bytes",
          "name": "data",
          "type": "bytes"
        }
      ],
      "name": "safeTransferFrom",
      "outputs": [],
      "stateMutability": "nonpayable",
      "type": "function"
    },
    {
      "inputs": [
        {
          "internalType": "address",
          "name": "operator",
          "type": "address"
        },
        {
          "internalType": "bool",
          "name": "approved",
          "type": "bool"
        }
      ],
      "name": "setApprovalForAll",
      "outputs": [],
      "stateMutability": "nonpayable",
      "type": "function"
    },
    {
      "inputs": [
        {
          "internalType": "string",
          "name": "_baseTokenURI",
          "type": "string"
        }
      ],
      "name": "setBaseTokenURI",
      "outputs": [],
      "stateMutability": "nonpayable",
      "type": "function"
    },
    {
      "inputs": [
        {
          "internalType": "bool",
          "name": "_isCharCreationAllowed",
          "type": "bool"
        }
      ],
      "name": "setIsCharCreationAllowed",
      "outputs": [],
      "stateMutability": "nonpayable",
      "type": "function"
    },
    {
      "inputs": [
        {
          "internalType": "bytes4",
          "name": "interfaceId",
          "type": "bytes4"
        }
      ],
      "name": "supportsInterface",
      "outputs": [
        {
          "internalType": "bool",
          "name": "",
          "type": "bool"
        }
      ],
      "stateMutability": "view",
      "type": "function"
    },
    {
      "inputs": [],
      "name": "symbol",
      "outputs": [
        {
          "internalType": "string",
          "name": "",
          "type": "string"
        }
      ],
      "stateMutability": "view",
      "type": "function"
    },
    {
      "inputs": [
        {
          "internalType": "uint256",
          "name": "_tokenId",
          "type": "uint256"
        }
      ],
      "name": "tokenURI",
      "outputs": [
        {
          "internalType": "string",
          "name": "",
          "type": "string"
        }
      ],
      "stateMutability": "view",
      "type": "function"
    },
    {
      "inputs": [
        {
          "internalType": "address",
          "name": "from",
          "type": "address"
        },
        {
          "internalType": "address",
          "name": "to",
          "type": "address"
        },
        {
          "internalType": "uint256",
          "name": "tokenId",
          "type": "uint256"
        }
      ],
      "name": "transferFrom",
      "outputs": [],
      "stateMutability": "nonpayable",
      "type": "function"
    },
    {
      "inputs": [
        {
          "internalType": "address",
          "name": "newOwner",
          "type": "address"
        }
      ],
      "name": "transferOwnership",
      "outputs": [],
      "stateMutability": "nonpayable",
      "type": "function"
    },
    {
      "inputs": [
        {
          "internalType": "address",
          "name": "",
          "type": "address"
        }
      ],
      "name": "walletMints",
      "outputs": [
        {
          "internalType": "uint256",
          "name": "",
          "type": "uint256"
        }
      ],
      "stateMutability": "view",
      "type": "function"
    },
    {
      "inputs": [],
      "name": "withdraw",
      "outputs": [],
      "stateMutability": "nonpayable",
      "type": "function"
    },
    {
      "inputs": [],
      "name": "withdrawWallet",
      "outputs": [
        {
          "internalType": "address payable",
          "name": "",
          "type": "address"
        }
      ],
      "stateMutability": "view",
      "type": "function"
    }
  ],
  "bytecode": "0x60806040526040518060400160405280601281526020017f436861726163746572206372656174696f6e00000000000000000000000000008152506040518060400160405280600381526020017f43484e0000000000000000000000000000000000000000000000000000000000815250816000908051906020019062000088929190620001ee565b508060019080519060200190620000a1929190620001ee565b505050620000c4620000b86200012060201b60201c565b6200012860201b60201c565b655af3107a4000600781905550600a60088190555033600960016101000a81548173ffffffffffffffffffffffffffffffffffffffff021916908373ffffffffffffffffffffffffffffffffffffffff16021790555062000302565b600033905090565b6000600660009054906101000a900473ffffffffffffffffffffffffffffffffffffffff16905081600660006101000a81548173ffffffffffffffffffffffffffffffffffffffff021916908373ffffffffffffffffffffffffffffffffffffffff1602179055508173ffffffffffffffffffffffffffffffffffffffff168173ffffffffffffffffffffffffffffffffffffffff167f8be0079c531659141344cd1fd0a4f28419497f9722a3daafe3b4186f6b6457e060405160405180910390a35050565b828054620001fc90620002cd565b90600052602060002090601f0160209004810192826200022057600085556200026c565b82601f106200023b57805160ff19168380011785556200026c565b828001600101855582156200026c579182015b828111156200026b5782518255916020019190600101906200024e565b5b5090506200027b91906200027f565b5090565b5b808211156200029a57600081600090555060010162000280565b5090565b7f4e487b7100000000000000000000000000000000000000000000000000000000600052602260045260246000fd5b60006002820490506001821680620002e657607f821691505b602082108103620002fc57620002fb6200029e565b5b50919050565b6138d180620003126000396000f3fe60806040526004361061019c5760003560e01c806370a08231116100ec5780639fa4d3451161008a578063c87b56dd11610064578063c87b56dd146105a5578063e985e9c5146105e2578063f0293fd31461061f578063f2fde38b1461065c5761019c565b80639fa4d34514610528578063a22cb46514610553578063b88d4fde1461057c5761019c565b806374359960116100c6578063743599601461046a57806385d178f4146104a75780638da5cb5b146104d257806395d89b41146104fd5761019c565b806370a08231146103fa578063715018a61461043757806371b9f9be1461044e5761019c565b806330176e1311610159578063446c1fe911610133578063446c1fe91461033e578063453c2310146103675780636352211e146103925780636817c76c146103cf5761019c565b806330176e13146102d55780633ccfd60b146102fe57806342842e0e146103155761019c565b806301ffc9a7146101a157806303d56838146101de57806306fdde031461021b578063081812fc14610246578063095ea7b31461028357806323b872dd146102ac575b600080fd5b3480156101ad57600080fd5b506101c860048036038101906101c39190612280565b610685565b6040516101d591906122c8565b60405180910390f35b3480156101ea57600080fd5b5061020560048036038101906102009190612377565b610767565b6040516102129190612450565b60405180910390f35b34801561022757600080fd5b50610230610820565b60405161023d9190612450565b60405180910390f35b34801561025257600080fd5b5061026d60048036038101906102689190612472565b6108b2565b60405161027a91906124ae565b60405180910390f35b34801561028f57600080fd5b506102aa60048036038101906102a59190612377565b6108f8565b005b3480156102b857600080fd5b506102d360048036038101906102ce91906124c9565b610a0f565b005b3480156102e157600080fd5b506102fc60048036038101906102f79190612581565b610a6f565b005b34801561030a57600080fd5b50610313610a8d565b005b34801561032157600080fd5b5061033c600480360381019061033791906124c9565b610b66565b005b34801561034a57600080fd5b50610365600480360381019061036091906125fa565b610b86565b005b34801561037357600080fd5b5061037c610bab565b6040516103899190612636565b60405180910390f35b34801561039e57600080fd5b506103b960048036038101906103b49190612472565b610bb1565b6040516103c691906124ae565b60405180910390f35b3480156103db57600080fd5b506103e4610c62565b6040516103f19190612636565b60405180910390f35b34801561040657600080fd5b50610421600480360381019061041c9190612651565b610c68565b60405161042e9190612636565b60405180910390f35b34801561044357600080fd5b5061044c610d1f565b005b610468600480360381019061046391906127ae565b610d33565b005b34801561047657600080fd5b50610491600480360381019061048c9190612651565b610f6c565b60405161049e9190612916565b60405180910390f35b3480156104b357600080fd5b506104bc611084565b6040516104c99190612959565b60405180910390f35b3480156104de57600080fd5b506104e76110aa565b6040516104f491906124ae565b60405180910390f35b34801561050957600080fd5b506105126110d4565b60405161051f9190612450565b60405180910390f35b34801561053457600080fd5b5061053d611166565b60405161054a91906122c8565b60405180910390f35b34801561055f57600080fd5b5061057a60048036038101906105759190612974565b611179565b005b34801561058857600080fd5b506105a3600480360381019061059e9190612a55565b61118f565b005b3480156105b157600080fd5b506105cc60048036038101906105c79190612472565b6111f1565b6040516105d99190612450565b60405180910390f35b3480156105ee57600080fd5b5061060960048036038101906106049190612ad8565b61126d565b60405161061691906122c8565b60405180910390f35b34801561062b57600080fd5b5061064660048036038101906106419190612651565b611301565b6040516106539190612636565b60405180910390f35b34801561066857600080fd5b50610683600480360381019061067e9190612651565b611319565b005b60007f80ac58cd000000000000000000000000000000000000000000000000000000007bffffffffffffffffffffffffffffffffffffffffffffffffffffffff1916827bffffffffffffffffffffffffffffffffffffffffffffffffffffffff1916148061075057507f5b5e139f000000000000000000000000000000000000000000000000000000007bffffffffffffffffffffffffffffffffffffffffffffffffffffffff1916827bffffffffffffffffffffffffffffffffffffffffffffffffffffffff1916145b80610760575061075f8261139c565b5b9050919050565b600c602052816000526040600020818154811061078357600080fd5b9060005260206000200160009150915050805461079f90612b47565b80601f01602080910402602001604051908101604052809291908181526020018280546107cb90612b47565b80156108185780601f106107ed57610100808354040283529160200191610818565b820191906000526020600020905b8154815290600101906020018083116107fb57829003601f168201915b505050505081565b60606000805461082f90612b47565b80601f016020809104026020016040519081016040528092919081815260200182805461085b90612b47565b80156108a85780601f1061087d576101008083540402835291602001916108a8565b820191906000526020600020905b81548152906001019060200180831161088b57829003601f168201915b5050505050905090565b60006108bd82611406565b6004600083815260200190815260200160002060009054906101000a900473ffffffffffffffffffffffffffffffffffffffff169050919050565b600061090382610bb1565b90508073ffffffffffffffffffffffffffffffffffffffff168373ffffffffffffffffffffffffffffffffffffffff1603610973576040517f08c379a000000000000000000000000000000000000000000000000000000000815260040161096a90612bea565b60405180910390fd5b8073ffffffffffffffffffffffffffffffffffffffff16610992611451565b73ffffffffffffffffffffffffffffffffffffffff1614806109c157506109c0816109bb611451565b61126d565b5b610a00576040517f08c379a00000000000000000000000000000000000000000000000000000000081526004016109f790612c7c565b60405180910390fd5b610a0a8383611459565b505050565b610a20610a1a611451565b82611512565b610a5f576040517f08c379a0000000000000000000000000000000000000000000000000000000008152600401610a5690612d0e565b60405180910390fd5b610a6a8383836115a7565b505050565b610a7761180d565b8181600b9190610a889291906120eb565b505050565b610a9561180d565b6000600960019054906101000a900473ffffffffffffffffffffffffffffffffffffffff1673ffffffffffffffffffffffffffffffffffffffff1647604051610add90612d5f565b60006040518083038185875af1925050503d8060008114610b1a576040519150601f19603f3d011682016040523d82523d6000602084013e610b1f565b606091505b5050905080610b63576040517f08c379a0000000000000000000000000000000000000000000000000000000008152600401610b5a90612dc0565b60405180910390fd5b50565b610b818383836040518060200160405280600081525061118f565b505050565b610b8e61180d565b80600960006101000a81548160ff02191690831515021790555050565b60085481565b6000806002600084815260200190815260200160002060009054906101000a900473ffffffffffffffffffffffffffffffffffffffff169050600073ffffffffffffffffffffffffffffffffffffffff168173ffffffffffffffffffffffffffffffffffffffff1603610c59576040517f08c379a0000000000000000000000000000000000000000000000000000000008152600401610c5090612e2c565b60405180910390fd5b80915050919050565b60075481565b60008073ffffffffffffffffffffffffffffffffffffffff168273ffffffffffffffffffffffffffffffffffffffff1603610cd8576040517f08c379a0000000000000000000000000000000000000000000000000000000008152600401610ccf90612ebe565b60405180910390fd5b600360008373ffffffffffffffffffffffffffffffffffffffff1673ffffffffffffffffffffffffffffffffffffffff168152602001908152602001600020549050919050565b610d2761180d565b610d31600061188b565b565b600960009054906101000a900460ff16610d82576040517f08c379a0000000000000000000000000000000000000000000000000000000008152600401610d7990612f2a565b60405180910390fd5b600754341115610dc7576040517f08c379a0000000000000000000000000000000000000000000000000000000008152600401610dbe90612f96565b60405180910390fd5b6008546001600a60003373ffffffffffffffffffffffffffffffffffffffff1673ffffffffffffffffffffffffffffffffffffffff16815260200190815260200160002054610e169190612fe5565b10610e56576040517f08c379a0000000000000000000000000000000000000000000000000000000008152600401610e4d906130ad565b60405180910390fd5b600c60003373ffffffffffffffffffffffffffffffffffffffff1673ffffffffffffffffffffffffffffffffffffffff16815260200190815260200160002081908060018154018082558091505060019003906000526020600020016000909190919091509080519060200190610ece929190612171565b506001600a60003373ffffffffffffffffffffffffffffffffffffffff1673ffffffffffffffffffffffffffffffffffffffff16815260200190815260200160002054610f1b9190612fe5565b600a60003373ffffffffffffffffffffffffffffffffffffffff1673ffffffffffffffffffffffffffffffffffffffff16815260200190815260200160002081905550610f683383611951565b5050565b6060600c60008373ffffffffffffffffffffffffffffffffffffffff1673ffffffffffffffffffffffffffffffffffffffff168152602001908152602001600020805480602002602001604051908101604052809291908181526020016000905b82821015611079578382906000526020600020018054610fec90612b47565b80601f016020809104026020016040519081016040528092919081815260200182805461101890612b47565b80156110655780601f1061103a57610100808354040283529160200191611065565b820191906000526020600020905b81548152906001019060200180831161104857829003601f168201915b505050505081526020019060010190610fcd565b505050509050919050565b600960019054906101000a900473ffffffffffffffffffffffffffffffffffffffff1681565b6000600660009054906101000a900473ffffffffffffffffffffffffffffffffffffffff16905090565b6060600180546110e390612b47565b80601f016020809104026020016040519081016040528092919081815260200182805461110f90612b47565b801561115c5780601f106111315761010080835404028352916020019161115c565b820191906000526020600020905b81548152906001019060200180831161113f57829003601f168201915b5050505050905090565b600960009054906101000a900460ff1681565b61118b611184611451565b838361196f565b5050565b6111a061119a611451565b83611512565b6111df576040517f08c379a00000000000000000000000000000000000000000000000000000000081526004016111d690612d0e565b60405180910390fd5b6111eb84848484611adb565b50505050565b60606111fc82611b37565b61123b576040517f08c379a000000000000000000000000000000000000000000000000000000000815260040161123290613119565b60405180910390fd5b600b61124683611ba3565b604051602001611257929190613255565b6040516020818303038152906040529050919050565b6000600560008473ffffffffffffffffffffffffffffffffffffffff1673ffffffffffffffffffffffffffffffffffffffff16815260200190815260200160002060008373ffffffffffffffffffffffffffffffffffffffff1673ffffffffffffffffffffffffffffffffffffffff16815260200190815260200160002060009054906101000a900460ff16905092915050565b600a6020528060005260406000206000915090505481565b61132161180d565b600073ffffffffffffffffffffffffffffffffffffffff168173ffffffffffffffffffffffffffffffffffffffff1603611390576040517f08c379a0000000000000000000000000000000000000000000000000000000008152600401611387906132f6565b60405180910390fd5b6113998161188b565b50565b60007f01ffc9a7000000000000000000000000000000000000000000000000000000007bffffffffffffffffffffffffffffffffffffffffffffffffffffffff1916827bffffffffffffffffffffffffffffffffffffffffffffffffffffffff1916149050919050565b61140f81611b37565b61144e576040517f08c379a000000000000000000000000000000000000000000000000000000000815260040161144590612e2c565b60405180910390fd5b50565b600033905090565b816004600083815260200190815260200160002060006101000a81548173ffffffffffffffffffffffffffffffffffffffff021916908373ffffffffffffffffffffffffffffffffffffffff160217905550808273ffffffffffffffffffffffffffffffffffffffff166114cc83610bb1565b73ffffffffffffffffffffffffffffffffffffffff167f8c5be1e5ebec7d5bd14f71427d1e84f3dd0314c0f7b2291e5b200ac8c7c3b92560405160405180910390a45050565b60008061151e83610bb1565b90508073ffffffffffffffffffffffffffffffffffffffff168473ffffffffffffffffffffffffffffffffffffffff161480611560575061155f818561126d565b5b8061159e57508373ffffffffffffffffffffffffffffffffffffffff16611586846108b2565b73ffffffffffffffffffffffffffffffffffffffff16145b91505092915050565b8273ffffffffffffffffffffffffffffffffffffffff166115c782610bb1565b73ffffffffffffffffffffffffffffffffffffffff161461161d576040517f08c379a000000000000000000000000000000000000000000000000000000000815260040161161490613388565b60405180910390fd5b600073ffffffffffffffffffffffffffffffffffffffff168273ffffffffffffffffffffffffffffffffffffffff160361168c576040517f08c379a00000000000000000000000000000000000000000000000000000000081526004016116839061341a565b60405180910390fd5b611697838383611d03565b6116a2600082611459565b6001600360008573ffffffffffffffffffffffffffffffffffffffff1673ffffffffffffffffffffffffffffffffffffffff16815260200190815260200160002060008282546116f2919061343a565b925050819055506001600360008473ffffffffffffffffffffffffffffffffffffffff1673ffffffffffffffffffffffffffffffffffffffff16815260200190815260200160002060008282546117499190612fe5565b92505081905550816002600083815260200190815260200160002060006101000a81548173ffffffffffffffffffffffffffffffffffffffff021916908373ffffffffffffffffffffffffffffffffffffffff160217905550808273ffffffffffffffffffffffffffffffffffffffff168473ffffffffffffffffffffffffffffffffffffffff167fddf252ad1be2c89b69c2b068fc378daa952ba7f163c4a11628f55a4df523b3ef60405160405180910390a4611808838383611d08565b505050565b611815611451565b73ffffffffffffffffffffffffffffffffffffffff166118336110aa565b73ffffffffffffffffffffffffffffffffffffffff1614611889576040517f08c379a0000000000000000000000000000000000000000000000000000000008152600401611880906134ba565b60405180910390fd5b565b6000600660009054906101000a900473ffffffffffffffffffffffffffffffffffffffff16905081600660006101000a81548173ffffffffffffffffffffffffffffffffffffffff021916908373ffffffffffffffffffffffffffffffffffffffff1602179055508173ffffffffffffffffffffffffffffffffffffffff168173ffffffffffffffffffffffffffffffffffffffff167f8be0079c531659141344cd1fd0a4f28419497f9722a3daafe3b4186f6b6457e060405160405180910390a35050565b61196b828260405180602001604052806000815250611d0d565b5050565b8173ffffffffffffffffffffffffffffffffffffffff168373ffffffffffffffffffffffffffffffffffffffff16036119dd576040517f08c379a00000000000000000000000000000000000000000000000000000000081526004016119d490613526565b60405180910390fd5b80600560008573ffffffffffffffffffffffffffffffffffffffff1673ffffffffffffffffffffffffffffffffffffffff16815260200190815260200160002060008473ffffffffffffffffffffffffffffffffffffffff1673ffffffffffffffffffffffffffffffffffffffff16815260200190815260200160002060006101000a81548160ff0219169083151502179055508173ffffffffffffffffffffffffffffffffffffffff168373ffffffffffffffffffffffffffffffffffffffff167f17307eab39ab6107e8899845ad3d59bd9653f200f220920489ca2b5937696c3183604051611ace91906122c8565b60405180910390a3505050565b611ae68484846115a7565b611af284848484611d68565b611b31576040517f08c379a0000000000000000000000000000000000000000000000000000000008152600401611b28906135b8565b60405180910390fd5b50505050565b60008073ffffffffffffffffffffffffffffffffffffffff166002600084815260200190815260200160002060009054906101000a900473ffffffffffffffffffffffffffffffffffffffff1673ffffffffffffffffffffffffffffffffffffffff1614159050919050565b606060008203611bea576040518060400160405280600181526020017f30000000000000000000000000000000000000000000000000000000000000008152509050611cfe565b600082905060005b60008214611c1c578080611c05906135d8565b915050600a82611c15919061364f565b9150611bf2565b60008167ffffffffffffffff811115611c3857611c37612683565b5b6040519080825280601f01601f191660200182016040528015611c6a5781602001600182028036833780820191505090505b5090505b60008514611cf757600182611c83919061343a565b9150600a85611c929190613680565b6030611c9e9190612fe5565b60f81b818381518110611cb457611cb36136b1565b5b60200101907effffffffffffffffffffffffffffffffffffffffffffffffffffffffffffff1916908160001a905350600a85611cf0919061364f565b9450611c6e565b8093505050505b919050565b505050565b505050565b611d178383611eef565b611d246000848484611d68565b611d63576040517f08c379a0000000000000000000000000000000000000000000000000000000008152600401611d5a906135b8565b60405180910390fd5b505050565b6000611d898473ffffffffffffffffffffffffffffffffffffffff166120c8565b15611ee2578373ffffffffffffffffffffffffffffffffffffffff1663150b7a02611db2611451565b8786866040518563ffffffff1660e01b8152600401611dd49493929190613735565b6020604051808303816000875af1925050508015611e1057506040513d601f19601f82011682018060405250810190611e0d9190613796565b60015b611e92573d8060008114611e40576040519150601f19603f3d011682016040523d82523d6000602084013e611e45565b606091505b506000815103611e8a576040517f08c379a0000000000000000000000000000000000000000000000000000000008152600401611e81906135b8565b60405180910390fd5b805181602001fd5b63150b7a0260e01b7bffffffffffffffffffffffffffffffffffffffffffffffffffffffff1916817bffffffffffffffffffffffffffffffffffffffffffffffffffffffff191614915050611ee7565b600190505b949350505050565b600073ffffffffffffffffffffffffffffffffffffffff168273ffffffffffffffffffffffffffffffffffffffff1603611f5e576040517f08c379a0000000000000000000000000000000000000000000000000000000008152600401611f559061380f565b60405180910390fd5b611f6781611b37565b15611fa7576040517f08c379a0000000000000000000000000000000000000000000000000000000008152600401611f9e9061387b565b60405180910390fd5b611fb360008383611d03565b6001600360008473ffffffffffffffffffffffffffffffffffffffff1673ffffffffffffffffffffffffffffffffffffffff16815260200190815260200160002060008282546120039190612fe5565b92505081905550816002600083815260200190815260200160002060006101000a81548173ffffffffffffffffffffffffffffffffffffffff021916908373ffffffffffffffffffffffffffffffffffffffff160217905550808273ffffffffffffffffffffffffffffffffffffffff16600073ffffffffffffffffffffffffffffffffffffffff167fddf252ad1be2c89b69c2b068fc378daa952ba7f163c4a11628f55a4df523b3ef60405160405180910390a46120c460008383611d08565b5050565b6000808273ffffffffffffffffffffffffffffffffffffffff163b119050919050565b8280546120f790612b47565b90600052602060002090601f0160209004810192826121195760008555612160565b82601f1061213257803560ff1916838001178555612160565b82800160010185558215612160579182015b8281111561215f578235825591602001919060010190612144565b5b50905061216d91906121f7565b5090565b82805461217d90612b47565b90600052602060002090601f01602090048101928261219f57600085556121e6565b82601f106121b857805160ff19168380011785556121e6565b828001600101855582156121e6579182015b828111156121e55782518255916020019190600101906121ca565b5b5090506121f391906121f7565b5090565b5b808211156122105760008160009055506001016121f8565b5090565b6000604051905090565b600080fd5b600080fd5b60007fffffffff0000000000000000000000000000000000000000000000000000000082169050919050565b61225d81612228565b811461226857600080fd5b50565b60008135905061227a81612254565b92915050565b6000602082840312156122965761229561221e565b5b60006122a48482850161226b565b91505092915050565b60008115159050919050565b6122c2816122ad565b82525050565b60006020820190506122dd60008301846122b9565b92915050565b600073ffffffffffffffffffffffffffffffffffffffff82169050919050565b600061230e826122e3565b9050919050565b61231e81612303565b811461232957600080fd5b50565b60008135905061233b81612315565b92915050565b6000819050919050565b61235481612341565b811461235f57600080fd5b50565b6000813590506123718161234b565b92915050565b6000806040838503121561238e5761238d61221e565b5b600061239c8582860161232c565b92505060206123ad85828601612362565b9150509250929050565b600081519050919050565b600082825260208201905092915050565b60005b838110156123f15780820151818401526020810190506123d6565b83811115612400576000848401525b50505050565b6000601f19601f8301169050919050565b6000612422826123b7565b61242c81856123c2565b935061243c8185602086016123d3565b61244581612406565b840191505092915050565b6000602082019050818103600083015261246a8184612417565b905092915050565b6000602082840312156124885761248761221e565b5b600061249684828501612362565b91505092915050565b6124a881612303565b82525050565b60006020820190506124c3600083018461249f565b92915050565b6000806000606084860312156124e2576124e161221e565b5b60006124f08682870161232c565b93505060206125018682870161232c565b925050604061251286828701612362565b9150509250925092565b600080fd5b600080fd5b600080fd5b60008083601f8401126125415761254061251c565b5b8235905067ffffffffffffffff81111561255e5761255d612521565b5b60208301915083600182028301111561257a57612579612526565b5b9250929050565b600080602083850312156125985761259761221e565b5b600083013567ffffffffffffffff8111156125b6576125b5612223565b5b6125c28582860161252b565b92509250509250929050565b6125d7816122ad565b81146125e257600080fd5b50565b6000813590506125f4816125ce565b92915050565b6000602082840312156126105761260f61221e565b5b600061261e848285016125e5565b91505092915050565b61263081612341565b82525050565b600060208201905061264b6000830184612627565b92915050565b6000602082840312156126675761266661221e565b5b60006126758482850161232c565b91505092915050565b600080fd5b7f4e487b7100000000000000000000000000000000000000000000000000000000600052604160045260246000fd5b6126bb82612406565b810181811067ffffffffffffffff821117156126da576126d9612683565b5b80604052505050565b60006126ed612214565b90506126f982826126b2565b919050565b600067ffffffffffffffff82111561271957612718612683565b5b61272282612406565b9050602081019050919050565b82818337600083830152505050565b600061275161274c846126fe565b6126e3565b90508281526020810184848401111561276d5761276c61267e565b5b61277884828561272f565b509392505050565b600082601f8301126127955761279461251c565b5b81356127a584826020860161273e565b91505092915050565b600080604083850312156127c5576127c461221e565b5b60006127d385828601612362565b925050602083013567ffffffffffffffff8111156127f4576127f3612223565b5b61280085828601612780565b9150509250929050565b600081519050919050565b600082825260208201905092915050565b6000819050602082019050919050565b600082825260208201905092915050565b6000612852826123b7565b61285c8185612836565b935061286c8185602086016123d3565b61287581612406565b840191505092915050565b600061288c8383612847565b905092915050565b6000602082019050919050565b60006128ac8261280a565b6128b68185612815565b9350836020820285016128c885612826565b8060005b8581101561290457848403895281516128e58582612880565b94506128f083612894565b925060208a019950506001810190506128cc565b50829750879550505050505092915050565b6000602082019050818103600083015261293081846128a1565b905092915050565b6000612943826122e3565b9050919050565b61295381612938565b82525050565b600060208201905061296e600083018461294a565b92915050565b6000806040838503121561298b5761298a61221e565b5b60006129998582860161232c565b92505060206129aa858286016125e5565b9150509250929050565b600067ffffffffffffffff8211156129cf576129ce612683565b5b6129d882612406565b9050602081019050919050565b60006129f86129f3846129b4565b6126e3565b905082815260208101848484011115612a1457612a1361267e565b5b612a1f84828561272f565b509392505050565b600082601f830112612a3c57612a3b61251c565b5b8135612a4c8482602086016129e5565b91505092915050565b60008060008060808587031215612a6f57612a6e61221e565b5b6000612a7d8782880161232c565b9450506020612a8e8782880161232c565b9350506040612a9f87828801612362565b925050606085013567ffffffffffffffff811115612ac057612abf612223565b5b612acc87828801612a27565b91505092959194509250565b60008060408385031215612aef57612aee61221e565b5b6000612afd8582860161232c565b9250506020612b0e8582860161232c565b9150509250929050565b7f4e487b7100000000000000000000000000000000000000000000000000000000600052602260045260246000fd5b60006002820490506001821680612b5f57607f821691505b602082108103612b7257612b71612b18565b5b50919050565b7f4552433732313a20617070726f76616c20746f2063757272656e74206f776e6560008201527f7200000000000000000000000000000000000000000000000000000000000000602082015250565b6000612bd46021836123c2565b9150612bdf82612b78565b604082019050919050565b60006020820190508181036000830152612c0381612bc7565b9050919050565b7f4552433732313a20617070726f76652063616c6c6572206973206e6f7420746f60008201527f6b656e206f776e6572206e6f7220617070726f76656420666f7220616c6c0000602082015250565b6000612c66603e836123c2565b9150612c7182612c0a565b604082019050919050565b60006020820190508181036000830152612c9581612c59565b9050919050565b7f4552433732313a2063616c6c6572206973206e6f7420746f6b656e206f776e6560008201527f72206e6f7220617070726f766564000000000000000000000000000000000000602082015250565b6000612cf8602e836123c2565b9150612d0382612c9c565b604082019050919050565b60006020820190508181036000830152612d2781612ceb565b9050919050565b600081905092915050565b50565b6000612d49600083612d2e565b9150612d5482612d39565b600082019050919050565b6000612d6a82612d3c565b9150819050919050565b7f7769746864726177206661696c65640000000000000000000000000000000000600082015250565b6000612daa600f836123c2565b9150612db582612d74565b602082019050919050565b60006020820190508181036000830152612dd981612d9d565b9050919050565b7f4552433732313a20696e76616c696420746f6b656e2049440000000000000000600082015250565b6000612e166018836123c2565b9150612e2182612de0565b602082019050919050565b60006020820190508181036000830152612e4581612e09565b9050919050565b7f4552433732313a2061646472657373207a65726f206973206e6f74206120766160008201527f6c6964206f776e65720000000000000000000000000000000000000000000000602082015250565b6000612ea86029836123c2565b9150612eb382612e4c565b604082019050919050565b60006020820190508181036000830152612ed781612e9b565b9050919050565b7f43686172206372656174696f6e206973206e6f7420616c6c6f77656400000000600082015250565b6000612f14601c836123c2565b9150612f1f82612ede565b602082019050919050565b60006020820190508181036000830152612f4381612f07565b9050919050565b7f4e6f7420656e6f7567682066756e647300000000000000000000000000000000600082015250565b6000612f806010836123c2565b9150612f8b82612f4a565b602082019050919050565b60006020820190508181036000830152612faf81612f73565b9050919050565b7f4e487b7100000000000000000000000000000000000000000000000000000000600052601160045260246000fd5b6000612ff082612341565b9150612ffb83612341565b9250827fffffffffffffffffffffffffffffffffffffffffffffffffffffffffffffffff038211156130305761302f612fb6565b5b828201905092915050565b7f43686172206372656174696f6e206973206e6f7420616c6c6f7765642064756560008201527f20746f206d617820636861727320637265617465640000000000000000000000602082015250565b60006130976035836123c2565b91506130a28261303b565b604082019050919050565b600060208201905081810360008301526130c68161308a565b9050919050565b7f546f6b656e20646f6573206e6f74206578697374210000000000000000000000600082015250565b60006131036015836123c2565b915061310e826130cd565b602082019050919050565b60006020820190508181036000830152613132816130f6565b9050919050565b600081905092915050565b60008190508160005260206000209050919050565b6000815461316681612b47565b6131708186613139565b9450600182166000811461318b576001811461319c576131cf565b60ff198316865281860193506131cf565b6131a585613144565b60005b838110156131c7578154818901526001820191506020810190506131a8565b838801955050505b50505092915050565b60006131e3826123b7565b6131ed8185613139565b93506131fd8185602086016123d3565b80840191505092915050565b7f2e6a736f6e000000000000000000000000000000000000000000000000000000600082015250565b600061323f600583613139565b915061324a82613209565b600582019050919050565b60006132618285613159565b915061326d82846131d8565b915061327882613232565b91508190509392505050565b7f4f776e61626c653a206e6577206f776e657220697320746865207a65726f206160008201527f6464726573730000000000000000000000000000000000000000000000000000602082015250565b60006132e06026836123c2565b91506132eb82613284565b604082019050919050565b6000602082019050818103600083015261330f816132d3565b9050919050565b7f4552433732313a207472616e736665722066726f6d20696e636f72726563742060008201527f6f776e6572000000000000000000000000000000000000000000000000000000602082015250565b60006133726025836123c2565b915061337d82613316565b604082019050919050565b600060208201905081810360008301526133a181613365565b9050919050565b7f4552433732313a207472616e7366657220746f20746865207a65726f2061646460008201527f7265737300000000000000000000000000000000000000000000000000000000602082015250565b60006134046024836123c2565b915061340f826133a8565b604082019050919050565b60006020820190508181036000830152613433816133f7565b9050919050565b600061344582612341565b915061345083612341565b92508282101561346357613462612fb6565b5b828203905092915050565b7f4f776e61626c653a2063616c6c6572206973206e6f7420746865206f776e6572600082015250565b60006134a46020836123c2565b91506134af8261346e565b602082019050919050565b600060208201905081810360008301526134d381613497565b9050919050565b7f4552433732313a20617070726f766520746f2063616c6c657200000000000000600082015250565b60006135106019836123c2565b915061351b826134da565b602082019050919050565b6000602082019050818103600083015261353f81613503565b9050919050565b7f4552433732313a207472616e7366657220746f206e6f6e20455243373231526560008201527f63656976657220696d706c656d656e7465720000000000000000000000000000602082015250565b60006135a26032836123c2565b91506135ad82613546565b604082019050919050565b600060208201905081810360008301526135d181613595565b9050919050565b60006135e382612341565b91507fffffffffffffffffffffffffffffffffffffffffffffffffffffffffffffffff820361361557613614612fb6565b5b600182019050919050565b7f4e487b7100000000000000000000000000000000000000000000000000000000600052601260045260246000fd5b600061365a82612341565b915061366583612341565b92508261367557613674613620565b5b828204905092915050565b600061368b82612341565b915061369683612341565b9250826136a6576136a5613620565b5b828206905092915050565b7f4e487b7100000000000000000000000000000000000000000000000000000000600052603260045260246000fd5b600081519050919050565b600082825260208201905092915050565b6000613707826136e0565b61371181856136eb565b93506137218185602086016123d3565b61372a81612406565b840191505092915050565b600060808201905061374a600083018761249f565b613757602083018661249f565b6137646040830185612627565b818103606083015261377681846136fc565b905095945050505050565b60008151905061379081612254565b92915050565b6000602082840312156137ac576137ab61221e565b5b60006137ba84828501613781565b91505092915050565b7f4552433732313a206d696e7420746f20746865207a65726f2061646472657373600082015250565b60006137f96020836123c2565b9150613804826137c3565b602082019050919050565b60006020820190508181036000830152613828816137ec565b9050919050565b7f4552433732313a20746f6b656e20616c7265616479206d696e74656400000000600082015250565b6000613865601c836123c2565b91506138708261382f565b602082019050919050565b6000602082019050818103600083015261389481613858565b905091905056fea264697066735822122025b13fc838e2c4b524b5c0c056a6212e66293ba9949fa7e2101d65f19ee1357964736f6c634300080e0033",
  "linkReferences": {},
  "deployedLinkReferences": {}
}