{
  "_format": "hh-sol-artifact-1",
  "contractName": "CreateCharacter",
  "sourceName": "contracts/CreateCharacter.sol",
  "abi": [
    {
      "inputs": [],
      "stateMutability": "payable",
      "type": "constructor"
    },
    {
      "anonymous": false,
      "inputs": [
        {
          "indexed": true,
          "internalType": "address",
          "name": "owner",
          "type": "address"
        },
        {
          "indexed": true,
          "internalType": "address",
          "name": "approved",
          "type": "address"
        },
        {
          "indexed": true,
          "internalType": "uint256",
          "name": "tokenId",
          "type": "uint256"
        }
      ],
      "name": "Approval",
      "type": "event"
    },
    {
      "anonymous": false,
      "inputs": [
        {
          "indexed": true,
          "internalType": "address",
          "name": "owner",
          "type": "address"
        },
        {
          "indexed": true,
          "internalType": "address",
          "name": "operator",
          "type": "address"
        },
        {
          "indexed": false,
          "internalType": "bool",
          "name": "approved",
          "type": "bool"
        }
      ],
      "name": "ApprovalForAll",
      "type": "event"
    },
    {
      "anonymous": false,
      "inputs": [
        {
          "indexed": true,
          "internalType": "address",
          "name": "previousOwner",
          "type": "address"
        },
        {
          "indexed": true,
          "internalType": "address",
          "name": "newOwner",
          "type": "address"
        }
      ],
      "name": "OwnershipTransferred",
      "type": "event"
    },
    {
      "anonymous": false,
      "inputs": [
        {
          "indexed": true,
          "internalType": "address",
          "name": "from",
          "type": "address"
        },
        {
          "indexed": true,
          "internalType": "address",
          "name": "to",
          "type": "address"
        },
        {
          "indexed": true,
          "internalType": "uint256",
          "name": "tokenId",
          "type": "uint256"
        }
      ],
      "name": "Transfer",
      "type": "event"
    },
    {
      "inputs": [
        {
          "internalType": "address",
          "name": "to",
          "type": "address"
        },
        {
          "internalType": "uint256",
          "name": "tokenId",
          "type": "uint256"
        }
      ],
      "name": "approve",
      "outputs": [],
      "stateMutability": "nonpayable",
      "type": "function"
    },
    {
      "inputs": [
        {
          "internalType": "address",
          "name": "owner",
          "type": "address"
        }
      ],
      "name": "balanceOf",
      "outputs": [
        {
          "internalType": "uint256",
          "name": "",
          "type": "uint256"
        }
      ],
      "stateMutability": "view",
      "type": "function"
    },
    {
      "inputs": [
        {
          "internalType": "address",
          "name": "_address",
          "type": "address"
        }
      ],
      "name": "charactersOwnedByAddress",
      "outputs": [
        {
          "internalType": "string[]",
          "name": "",
          "type": "string[]"
        }
      ],
      "stateMutability": "view",
      "type": "function"
    },
    {
      "inputs": [
        {
          "internalType": "uint256",
          "name": "newItemId",
          "type": "uint256"
        },
        {
          "internalType": "string",
          "name": "_charName",
          "type": "string"
        }
      ],
      "name": "createCharacter",
      "outputs": [],
      "stateMutability": "payable",
      "type": "function"
    },
    {
      "inputs": [
        {
          "internalType": "uint256",
          "name": "tokenId",
          "type": "uint256"
        }
      ],
      "name": "getApproved",
      "outputs": [
        {
          "internalType": "address",
          "name": "",
          "type": "address"
        }
      ],
      "stateMutability": "view",
      "type": "function"
    },
    {
      "inputs": [
        {
          "internalType": "address",
          "name": "owner",
          "type": "address"
        },
        {
          "internalType": "address",
          "name": "operator",
          "type": "address"
        }
      ],
      "name": "isApprovedForAll",
      "outputs": [
        {
          "internalType": "bool",
          "name": "",
          "type": "bool"
        }
      ],
      "stateMutability": "view",
      "type": "function"
    },
    {
      "inputs": [],
      "name": "isCharCreationAllowed",
      "outputs": [
        {
          "internalType": "bool",
          "name": "",
          "type": "bool"
        }
      ],
      "stateMutability": "view",
      "type": "function"
    },
    {
      "inputs": [],
      "name": "maxPerWallet",
      "outputs": [
        {
          "internalType": "uint256",
          "name": "",
          "type": "uint256"
        }
      ],
      "stateMutability": "view",
      "type": "function"
    },
    {
      "inputs": [],
      "name": "mintPrice",
      "outputs": [
        {
          "internalType": "uint256",
          "name": "",
          "type": "uint256"
        }
      ],
      "stateMutability": "view",
      "type": "function"
    },
    {
      "inputs": [],
      "name": "name",
      "outputs": [
        {
          "internalType": "string",
          "name": "",
          "type": "string"
        }
      ],
      "stateMutability": "view",
      "type": "function"
    },
    {
      "inputs": [],
      "name": "owner",
      "outputs": [
        {
          "internalType": "address",
          "name": "",
          "type": "address"
        }
      ],
      "stateMutability": "view",
      "type": "function"
    },
    {
      "inputs": [
        {
          "internalType": "uint256",
          "name": "tokenId",
          "type": "uint256"
        }
      ],
      "name": "ownerOf",
      "outputs": [
        {
          "internalType": "address",
          "name": "",
          "type": "address"
        }
      ],
      "stateMutability": "view",
      "type": "function"
    },
    {
      "inputs": [],
      "name": "renounceOwnership",
      "outputs": [],
      "stateMutability": "nonpayable",
      "type": "function"
    },
    {
      "inputs": [
        {
          "internalType": "address",
          "name": "from",
          "type": "address"
        },
        {
          "internalType": "address",
          "name": "to",
          "type": "address"
        },
        {
          "internalType": "uint256",
          "name": "tokenId",
          "type": "uint256"
        }
      ],
      "name": "safeTransferFrom",
      "outputs": [],
      "stateMutability": "nonpayable",
      "type": "function"
    },
    {
      "inputs": [
        {
          "internalType": "address",
          "name": "from",
          "type": "address"
        },
        {
          "internalType": "address",
          "name": "to",
          "type": "address"
        },
        {
          "internalType": "uint256",
          "name": "tokenId",
          "type": "uint256"
        },
        {
          "internalType": "bytes",
          "name": "data",
          "type": "bytes"
        }
      ],
      "name": "safeTransferFrom",
      "outputs": [],
      "stateMutability": "nonpayable",
      "type": "function"
    },
    {
      "inputs": [
        {
          "internalType": "address",
          "name": "operator",
          "type": "address"
        },
        {
          "internalType": "bool",
          "name": "approved",
          "type": "bool"
        }
      ],
      "name": "setApprovalForAll",
      "outputs": [],
      "stateMutability": "nonpayable",
      "type": "function"
    },
    {
      "inputs": [
        {
          "internalType": "string",
          "name": "_baseTokenURI",
          "type": "string"
        }
      ],
      "name": "setBaseTokenURI",
      "outputs": [],
      "stateMutability": "nonpayable",
      "type": "function"
    },
    {
      "inputs": [
        {
          "internalType": "bool",
          "name": "_isCharCreationAllowed",
          "type": "bool"
        }
      ],
      "name": "setIsCharCreationAllowed",
      "outputs": [],
      "stateMutability": "nonpayable",
      "type": "function"
    },
    {
      "inputs": [
        {
          "internalType": "bytes4",
          "name": "interfaceId",
          "type": "bytes4"
        }
      ],
      "name": "supportsInterface",
      "outputs": [
        {
          "internalType": "bool",
          "name": "",
          "type": "bool"
        }
      ],
      "stateMutability": "view",
      "type": "function"
    },
    {
      "inputs": [],
      "name": "symbol",
      "outputs": [
        {
          "internalType": "string",
          "name": "",
          "type": "string"
        }
      ],
      "stateMutability": "view",
      "type": "function"
    },
    {
      "inputs": [
        {
          "internalType": "uint256",
          "name": "_tokenId",
          "type": "uint256"
        }
      ],
      "name": "tokenURI",
      "outputs": [
        {
          "internalType": "string",
          "name": "",
          "type": "string"
        }
      ],
      "stateMutability": "view",
      "type": "function"
    },
    {
      "inputs": [
        {
          "internalType": "address",
          "name": "from",
          "type": "address"
        },
        {
          "internalType": "address",
          "name": "to",
          "type": "address"
        },
        {
          "internalType": "uint256",
          "name": "tokenId",
          "type": "uint256"
        }
      ],
      "name": "transferFrom",
      "outputs": [],
      "stateMutability": "nonpayable",
      "type": "function"
    },
    {
      "inputs": [
        {
          "internalType": "address",
          "name": "newOwner",
          "type": "address"
        }
      ],
      "name": "transferOwnership",
      "outputs": [],
      "stateMutability": "nonpayable",
      "type": "function"
    },
    {
      "inputs": [],
      "name": "withdraw",
      "outputs": [],
      "stateMutability": "nonpayable",
      "type": "function"
    },
    {
      "inputs": [],
      "name": "withdrawWallet",
      "outputs": [
        {
          "internalType": "address payable",
          "name": "",
          "type": "address"
        }
      ],
      "stateMutability": "view",
      "type": "function"
    }
  ],
  "bytecode": "0x60806040526040518060400160405280601281526020017f436861726163746572206372656174696f6e00000000000000000000000000008152506040518060400160405280600481526020017f434841520000000000000000000000000000000000000000000000000000000081525081600090805190602001906200008892919062000209565b508060019080519060200190620000a192919062000209565b505050620000c4620000b86200013b60201b60201c565b6200014360201b60201c565b655af3107a4000600781905550600a60088190555033600960016101000a81548173ffffffffffffffffffffffffffffffffffffffff021916908373ffffffffffffffffffffffffffffffffffffffff1602179055506001600960006101000a81548160ff0219169083151502179055506200031d565b600033905090565b6000600660009054906101000a900473ffffffffffffffffffffffffffffffffffffffff16905081600660006101000a81548173ffffffffffffffffffffffffffffffffffffffff021916908373ffffffffffffffffffffffffffffffffffffffff1602179055508173ffffffffffffffffffffffffffffffffffffffff168173ffffffffffffffffffffffffffffffffffffffff167f8be0079c531659141344cd1fd0a4f28419497f9722a3daafe3b4186f6b6457e060405160405180910390a35050565b8280546200021790620002e8565b90600052602060002090601f0160209004810192826200023b576000855562000287565b82601f106200025657805160ff191683800117855562000287565b8280016001018555821562000287579182015b828111156200028657825182559160200191906001019062000269565b5b5090506200029691906200029a565b5090565b5b80821115620002b55760008160009055506001016200029b565b5090565b7f4e487b7100000000000000000000000000000000000000000000000000000000600052602260045260246000fd5b600060028204905060018216806200030157607f821691505b602082108103620003175762000316620002b9565b5b50919050565b614559806200032d6000396000f3fe6080604052600436106101665760003560e01c806370a08231116100d157806395d89b411161008a578063b88d4fde11610064578063b88d4fde14610509578063c87b56dd14610532578063e985e9c51461056f578063f2fde38b146105ac57610166565b806395d89b411461048a5780639fa4d345146104b5578063a22cb465146104e057610166565b806370a0823114610387578063715018a6146103c457806371b9f9be146103db57806374359960146103f757806385d178f4146104345780638da5cb5b1461045f57610166565b80633ccfd60b116101235780633ccfd60b1461028b57806342842e0e146102a2578063446c1fe9146102cb578063453c2310146102f45780636352211e1461031f5780636817c76c1461035c57610166565b806301ffc9a71461016b57806306fdde03146101a8578063081812fc146101d3578063095ea7b31461021057806323b872dd1461023957806330176e1314610262575b600080fd5b34801561017757600080fd5b50610192600480360381019061018d9190612d22565b6105d5565b60405161019f9190612d6a565b60405180910390f35b3480156101b457600080fd5b506101bd6106b7565b6040516101ca9190612e1e565b60405180910390f35b3480156101df57600080fd5b506101fa60048036038101906101f59190612e76565b610749565b6040516102079190612ee4565b60405180910390f35b34801561021c57600080fd5b5061023760048036038101906102329190612f2b565b61078f565b005b34801561024557600080fd5b50610260600480360381019061025b9190612f6b565b6108a6565b005b34801561026e57600080fd5b5061028960048036038101906102849190613023565b610ca4565b005b34801561029757600080fd5b506102a0610cc2565b005b3480156102ae57600080fd5b506102c960048036038101906102c49190612f6b565b610d9b565b005b3480156102d757600080fd5b506102f260048036038101906102ed919061309c565b6111a9565b005b34801561030057600080fd5b506103096111ce565b60405161031691906130d8565b60405180910390f35b34801561032b57600080fd5b5061034660048036038101906103419190612e76565b6111d4565b6040516103539190612ee4565b60405180910390f35b34801561036857600080fd5b50610371611285565b60405161037e91906130d8565b60405180910390f35b34801561039357600080fd5b506103ae60048036038101906103a991906130f3565b61128b565b6040516103bb91906130d8565b60405180910390f35b3480156103d057600080fd5b506103d9611342565b005b6103f560048036038101906103f09190613250565b611356565b005b34801561040357600080fd5b5061041e600480360381019061041991906130f3565b611576565b60405161042b91906133b8565b60405180910390f35b34801561044057600080fd5b5061044961168e565b60405161045691906133fb565b60405180910390f35b34801561046b57600080fd5b506104746116b4565b6040516104819190612ee4565b60405180910390f35b34801561049657600080fd5b5061049f6116de565b6040516104ac9190612e1e565b60405180910390f35b3480156104c157600080fd5b506104ca611770565b6040516104d79190612d6a565b60405180910390f35b3480156104ec57600080fd5b5061050760048036038101906105029190613416565b611783565b005b34801561051557600080fd5b50610530600480360381019061052b91906134f7565b611799565b005b34801561053e57600080fd5b5061055960048036038101906105549190612e76565b611b99565b6040516105669190612e1e565b60405180910390f35b34801561057b57600080fd5b506105966004803603810190610591919061357a565b611c15565b6040516105a39190612d6a565b60405180910390f35b3480156105b857600080fd5b506105d360048036038101906105ce91906130f3565b611ca9565b005b60007f80ac58cd000000000000000000000000000000000000000000000000000000007bffffffffffffffffffffffffffffffffffffffffffffffffffffffff1916827bffffffffffffffffffffffffffffffffffffffffffffffffffffffff191614806106a057507f5b5e139f000000000000000000000000000000000000000000000000000000007bffffffffffffffffffffffffffffffffffffffffffffffffffffffff1916827bffffffffffffffffffffffffffffffffffffffffffffffffffffffff1916145b806106b057506106af82611d2c565b5b9050919050565b6060600080546106c6906135e9565b80601f01602080910402602001604051908101604052809291908181526020018280546106f2906135e9565b801561073f5780601f106107145761010080835404028352916020019161073f565b820191906000526020600020905b81548152906001019060200180831161072257829003601f168201915b5050505050905090565b600061075482611d96565b6004600083815260200190815260200160002060009054906101000a900473ffffffffffffffffffffffffffffffffffffffff169050919050565b600061079a826111d4565b90508073ffffffffffffffffffffffffffffffffffffffff168373ffffffffffffffffffffffffffffffffffffffff160361080a576040517f08c379a00000000000000000000000000000000000000000000000000000000081526004016108019061368c565b60405180910390fd5b8073ffffffffffffffffffffffffffffffffffffffff16610829611de1565b73ffffffffffffffffffffffffffffffffffffffff161480610858575061085781610852611de1565b611c15565b5b610897576040517f08c379a000000000000000000000000000000000000000000000000000000000815260040161088e9061371e565b60405180910390fd5b6108a18383611de9565b505050565b6108b76108b1611de1565b82611ea2565b6108f6576040517f08c379a00000000000000000000000000000000000000000000000000000000081526004016108ed906137b0565b60405180910390fd5b60085460016109048461128b565b61090e91906137ff565b1061094e576040517f08c379a0000000000000000000000000000000000000000000000000000000008152600401610945906138c7565b60405180910390fd5b6000600b6000838152602001908152602001600020805461096e906135e9565b80601f016020809104026020016040519081016040528092919081815260200182805461099a906135e9565b80156109e75780601f106109bc576101008083540402835291602001916109e7565b820191906000526020600020905b8154815290600101906020018083116109ca57829003601f168201915b5050505050905060005b600d60008673ffffffffffffffffffffffffffffffffffffffff1673ffffffffffffffffffffffffffffffffffffffff16815260200190815260200160002080549050811015610c36578151600d60008773ffffffffffffffffffffffffffffffffffffffff1673ffffffffffffffffffffffffffffffffffffffff1681526020019081526020016000208281548110610a8e57610a8d6138e7565b5b906000526020600020018054610aa3906135e9565b905003610c23578180519060200120600d60008773ffffffffffffffffffffffffffffffffffffffff1673ffffffffffffffffffffffffffffffffffffffff1681526020019081526020016000208281548110610b0357610b026138e7565b5b90600052602060002001604051610b1a91906139b5565b604051809103902003610c2257600d60008673ffffffffffffffffffffffffffffffffffffffff1673ffffffffffffffffffffffffffffffffffffffff1681526020019081526020016000208181548110610b7857610b776138e7565b5b906000526020600020016000610b8e9190612a7b565b600d60008573ffffffffffffffffffffffffffffffffffffffff1673ffffffffffffffffffffffffffffffffffffffff168152602001908152602001600020600b600085815260200190815260200160002090806001815401808255809150506001900390600052602060002001600090919091909150908054610c11906135e9565b610c1c929190612abb565b50610c36565b5b8080610c2e906139cc565b9150506109f1565b506000610c428561128b565b03610c9357600d60008573ffffffffffffffffffffffffffffffffffffffff1673ffffffffffffffffffffffffffffffffffffffff1681526020019081526020016000206000610c929190612b48565b5b610c9e848484611f37565b50505050565b610cac61219d565b8181600a9190610cbd929190612b69565b505050565b610cca61219d565b6000600960019054906101000a900473ffffffffffffffffffffffffffffffffffffffff1673ffffffffffffffffffffffffffffffffffffffff1647604051610d1290613a3a565b60006040518083038185875af1925050503d8060008114610d4f576040519150601f19603f3d011682016040523d82523d6000602084013e610d54565b606091505b5050905080610d98576040517f08c379a0000000000000000000000000000000000000000000000000000000008152600401610d8f90613a9b565b60405180910390fd5b50565b610dac610da6611de1565b82611ea2565b610deb576040517f08c379a0000000000000000000000000000000000000000000000000000000008152600401610de2906137b0565b60405180910390fd5b6008546001610df98461128b565b610e0391906137ff565b10610e43576040517f08c379a0000000000000000000000000000000000000000000000000000000008152600401610e3a906138c7565b60405180910390fd5b6000600b60008381526020019081526020016000208054610e63906135e9565b80601f0160208091040260200160405190810160405280929190818152602001828054610e8f906135e9565b8015610edc5780601f10610eb157610100808354040283529160200191610edc565b820191906000526020600020905b815481529060010190602001808311610ebf57829003601f168201915b5050505050905060005b600d60008673ffffffffffffffffffffffffffffffffffffffff1673ffffffffffffffffffffffffffffffffffffffff1681526020019081526020016000208054905081101561112b578151600d60008773ffffffffffffffffffffffffffffffffffffffff1673ffffffffffffffffffffffffffffffffffffffff1681526020019081526020016000208281548110610f8357610f826138e7565b5b906000526020600020018054610f98906135e9565b905003611118578180519060200120600d60008773ffffffffffffffffffffffffffffffffffffffff1673ffffffffffffffffffffffffffffffffffffffff1681526020019081526020016000208281548110610ff857610ff76138e7565b5b9060005260206000200160405161100f91906139b5565b60405180910390200361111757600d60008673ffffffffffffffffffffffffffffffffffffffff1673ffffffffffffffffffffffffffffffffffffffff168152602001908152602001600020818154811061106d5761106c6138e7565b5b9060005260206000200160006110839190612a7b565b600d60008573ffffffffffffffffffffffffffffffffffffffff1673ffffffffffffffffffffffffffffffffffffffff168152602001908152602001600020600b600085815260200190815260200160002090806001815401808255809150506001900390600052602060002001600090919091909150908054611106906135e9565b611111929190612abb565b5061112b565b5b8080611123906139cc565b915050610ee6565b5060006111378561128b565b0361118857600d60008573ffffffffffffffffffffffffffffffffffffffff1673ffffffffffffffffffffffffffffffffffffffff16815260200190815260200160002060006111879190612b48565b5b6111a38484846040518060200160405280600081525061221b565b50505050565b6111b161219d565b80600960006101000a81548160ff02191690831515021790555050565b60085481565b6000806002600084815260200190815260200160002060009054906101000a900473ffffffffffffffffffffffffffffffffffffffff169050600073ffffffffffffffffffffffffffffffffffffffff168173ffffffffffffffffffffffffffffffffffffffff160361127c576040517f08c379a000000000000000000000000000000000000000000000000000000000815260040161127390613b07565b60405180910390fd5b80915050919050565b60075481565b60008073ffffffffffffffffffffffffffffffffffffffff168273ffffffffffffffffffffffffffffffffffffffff16036112fb576040517f08c379a00000000000000000000000000000000000000000000000000000000081526004016112f290613b99565b60405180910390fd5b600360008373ffffffffffffffffffffffffffffffffffffffff1673ffffffffffffffffffffffffffffffffffffffff168152602001908152602001600020549050919050565b61134a61219d565b6113546000612277565b565b600960009054906101000a900460ff166113a5576040517f08c379a000000000000000000000000000000000000000000000000000000000815260040161139c90613c05565b60405180910390fd5b6007543411156113ea576040517f08c379a00000000000000000000000000000000000000000000000000000000081526004016113e190613c71565b60405180910390fd5b60085460016113f83361128b565b61140291906137ff565b10611442576040517f08c379a000000000000000000000000000000000000000000000000000000000815260040161143990613d03565b60405180910390fd5b6001600c826040516114549190613d5f565b908152602001604051809103902054106114a3576040517f08c379a000000000000000000000000000000000000000000000000000000000815260040161149a90613de8565b60405180910390fd5b600d60003373ffffffffffffffffffffffffffffffffffffffff1673ffffffffffffffffffffffffffffffffffffffff1681526020019081526020016000208190806001815401808255809150506001900390600052602060002001600090919091909150908051906020019061151b929190612bef565b506001600c8260405161152e9190613d5f565b90815260200160405180910390208190555080600b60008481526020019081526020016000209080519060200190611567929190612bef565b50611572338361233d565b5050565b6060600d60008373ffffffffffffffffffffffffffffffffffffffff1673ffffffffffffffffffffffffffffffffffffffff168152602001908152602001600020805480602002602001604051908101604052809291908181526020016000905b828210156116835783829060005260206000200180546115f6906135e9565b80601f0160208091040260200160405190810160405280929190818152602001828054611622906135e9565b801561166f5780601f106116445761010080835404028352916020019161166f565b820191906000526020600020905b81548152906001019060200180831161165257829003601f168201915b5050505050815260200190600101906115d7565b505050509050919050565b600960019054906101000a900473ffffffffffffffffffffffffffffffffffffffff1681565b6000600660009054906101000a900473ffffffffffffffffffffffffffffffffffffffff16905090565b6060600180546116ed906135e9565b80601f0160208091040260200160405190810160405280929190818152602001828054611719906135e9565b80156117665780601f1061173b57610100808354040283529160200191611766565b820191906000526020600020905b81548152906001019060200180831161174957829003601f168201915b5050505050905090565b600960009054906101000a900460ff1681565b61179561178e611de1565b838361235b565b5050565b6117aa6117a4611de1565b83611ea2565b6117e9576040517f08c379a00000000000000000000000000000000000000000000000000000000081526004016117e0906137b0565b60405180910390fd5b60085460016117f78561128b565b61180191906137ff565b10611841576040517f08c379a0000000000000000000000000000000000000000000000000000000008152600401611838906138c7565b60405180910390fd5b6000600b60008481526020019081526020016000208054611861906135e9565b80601f016020809104026020016040519081016040528092919081815260200182805461188d906135e9565b80156118da5780601f106118af576101008083540402835291602001916118da565b820191906000526020600020905b8154815290600101906020018083116118bd57829003601f168201915b5050505050905060005b600d60008773ffffffffffffffffffffffffffffffffffffffff1673ffffffffffffffffffffffffffffffffffffffff16815260200190815260200160002080549050811015611b29578151600d60008873ffffffffffffffffffffffffffffffffffffffff1673ffffffffffffffffffffffffffffffffffffffff1681526020019081526020016000208281548110611981576119806138e7565b5b906000526020600020018054611996906135e9565b905003611b16578180519060200120600d60008873ffffffffffffffffffffffffffffffffffffffff1673ffffffffffffffffffffffffffffffffffffffff16815260200190815260200160002082815481106119f6576119f56138e7565b5b90600052602060002001604051611a0d91906139b5565b604051809103902003611b1557600d60008773ffffffffffffffffffffffffffffffffffffffff1673ffffffffffffffffffffffffffffffffffffffff1681526020019081526020016000208181548110611a6b57611a6a6138e7565b5b906000526020600020016000611a819190612a7b565b600d60008673ffffffffffffffffffffffffffffffffffffffff1673ffffffffffffffffffffffffffffffffffffffff168152602001908152602001600020600b600086815260200190815260200160002090806001815401808255809150506001900390600052602060002001600090919091909150908054611b04906135e9565b611b0f929190612abb565b50611b29565b5b8080611b21906139cc565b9150506118e4565b506000611b358661128b565b03611b8657600d60008673ffffffffffffffffffffffffffffffffffffffff1673ffffffffffffffffffffffffffffffffffffffff1681526020019081526020016000206000611b859190612b48565b5b611b928585858561221b565b5050505050565b6060611ba4826124c7565b611be3576040517f08c379a0000000000000000000000000000000000000000000000000000000008152600401611bda90613e54565b60405180910390fd5b600a611bee83612533565b604051602001611bff929190613f54565b6040516020818303038152906040529050919050565b6000600560008473ffffffffffffffffffffffffffffffffffffffff1673ffffffffffffffffffffffffffffffffffffffff16815260200190815260200160002060008373ffffffffffffffffffffffffffffffffffffffff1673ffffffffffffffffffffffffffffffffffffffff16815260200190815260200160002060009054906101000a900460ff16905092915050565b611cb161219d565b600073ffffffffffffffffffffffffffffffffffffffff168173ffffffffffffffffffffffffffffffffffffffff1603611d20576040517f08c379a0000000000000000000000000000000000000000000000000000000008152600401611d1790613ff5565b60405180910390fd5b611d2981612277565b50565b60007f01ffc9a7000000000000000000000000000000000000000000000000000000007bffffffffffffffffffffffffffffffffffffffffffffffffffffffff1916827bffffffffffffffffffffffffffffffffffffffffffffffffffffffff1916149050919050565b611d9f816124c7565b611dde576040517f08c379a0000000000000000000000000000000000000000000000000000000008152600401611dd590613b07565b60405180910390fd5b50565b600033905090565b816004600083815260200190815260200160002060006101000a81548173ffffffffffffffffffffffffffffffffffffffff021916908373ffffffffffffffffffffffffffffffffffffffff160217905550808273ffffffffffffffffffffffffffffffffffffffff16611e5c836111d4565b73ffffffffffffffffffffffffffffffffffffffff167f8c5be1e5ebec7d5bd14f71427d1e84f3dd0314c0f7b2291e5b200ac8c7c3b92560405160405180910390a45050565b600080611eae836111d4565b90508073ffffffffffffffffffffffffffffffffffffffff168473ffffffffffffffffffffffffffffffffffffffff161480611ef05750611eef8185611c15565b5b80611f2e57508373ffffffffffffffffffffffffffffffffffffffff16611f1684610749565b73ffffffffffffffffffffffffffffffffffffffff16145b91505092915050565b8273ffffffffffffffffffffffffffffffffffffffff16611f57826111d4565b73ffffffffffffffffffffffffffffffffffffffff1614611fad576040517f08c379a0000000000000000000000000000000000000000000000000000000008152600401611fa490614087565b60405180910390fd5b600073ffffffffffffffffffffffffffffffffffffffff168273ffffffffffffffffffffffffffffffffffffffff160361201c576040517f08c379a000000000000000000000000000000000000000000000000000000000815260040161201390614119565b60405180910390fd5b612027838383612693565b612032600082611de9565b6001600360008573ffffffffffffffffffffffffffffffffffffffff1673ffffffffffffffffffffffffffffffffffffffff16815260200190815260200160002060008282546120829190614139565b925050819055506001600360008473ffffffffffffffffffffffffffffffffffffffff1673ffffffffffffffffffffffffffffffffffffffff16815260200190815260200160002060008282546120d991906137ff565b92505081905550816002600083815260200190815260200160002060006101000a81548173ffffffffffffffffffffffffffffffffffffffff021916908373ffffffffffffffffffffffffffffffffffffffff160217905550808273ffffffffffffffffffffffffffffffffffffffff168473ffffffffffffffffffffffffffffffffffffffff167fddf252ad1be2c89b69c2b068fc378daa952ba7f163c4a11628f55a4df523b3ef60405160405180910390a4612198838383612698565b505050565b6121a5611de1565b73ffffffffffffffffffffffffffffffffffffffff166121c36116b4565b73ffffffffffffffffffffffffffffffffffffffff1614612219576040517f08c379a0000000000000000000000000000000000000000000000000000000008152600401612210906141b9565b60405180910390fd5b565b612226848484611f37565b6122328484848461269d565b612271576040517f08c379a00000000000000000000000000000000000000000000000000000000081526004016122689061424b565b60405180910390fd5b50505050565b6000600660009054906101000a900473ffffffffffffffffffffffffffffffffffffffff16905081600660006101000a81548173ffffffffffffffffffffffffffffffffffffffff021916908373ffffffffffffffffffffffffffffffffffffffff1602179055508173ffffffffffffffffffffffffffffffffffffffff168173ffffffffffffffffffffffffffffffffffffffff167f8be0079c531659141344cd1fd0a4f28419497f9722a3daafe3b4186f6b6457e060405160405180910390a35050565b612357828260405180602001604052806000815250612824565b5050565b8173ffffffffffffffffffffffffffffffffffffffff168373ffffffffffffffffffffffffffffffffffffffff16036123c9576040517f08c379a00000000000000000000000000000000000000000000000000000000081526004016123c0906142b7565b60405180910390fd5b80600560008573ffffffffffffffffffffffffffffffffffffffff1673ffffffffffffffffffffffffffffffffffffffff16815260200190815260200160002060008473ffffffffffffffffffffffffffffffffffffffff1673ffffffffffffffffffffffffffffffffffffffff16815260200190815260200160002060006101000a81548160ff0219169083151502179055508173ffffffffffffffffffffffffffffffffffffffff168373ffffffffffffffffffffffffffffffffffffffff167f17307eab39ab6107e8899845ad3d59bd9653f200f220920489ca2b5937696c31836040516124ba9190612d6a565b60405180910390a3505050565b60008073ffffffffffffffffffffffffffffffffffffffff166002600084815260200190815260200160002060009054906101000a900473ffffffffffffffffffffffffffffffffffffffff1673ffffffffffffffffffffffffffffffffffffffff1614159050919050565b60606000820361257a576040518060400160405280600181526020017f3000000000000000000000000000000000000000000000000000000000000000815250905061268e565b600082905060005b600082146125ac578080612595906139cc565b915050600a826125a59190614306565b9150612582565b60008167ffffffffffffffff8111156125c8576125c7613125565b5b6040519080825280601f01601f1916602001820160405280156125fa5781602001600182028036833780820191505090505b5090505b60008514612687576001826126139190614139565b9150600a856126229190614337565b603061262e91906137ff565b60f81b818381518110612644576126436138e7565b5b60200101907effffffffffffffffffffffffffffffffffffffffffffffffffffffffffffff1916908160001a905350600a856126809190614306565b94506125fe565b8093505050505b919050565b505050565b505050565b60006126be8473ffffffffffffffffffffffffffffffffffffffff1661287f565b15612817578373ffffffffffffffffffffffffffffffffffffffff1663150b7a026126e7611de1565b8786866040518563ffffffff1660e01b815260040161270994939291906143bd565b6020604051808303816000875af192505050801561274557506040513d601f19601f82011682018060405250810190612742919061441e565b60015b6127c7573d8060008114612775576040519150601f19603f3d011682016040523d82523d6000602084013e61277a565b606091505b5060008151036127bf576040517f08c379a00000000000000000000000000000000000000000000000000000000081526004016127b69061424b565b60405180910390fd5b805181602001fd5b63150b7a0260e01b7bffffffffffffffffffffffffffffffffffffffffffffffffffffffff1916817bffffffffffffffffffffffffffffffffffffffffffffffffffffffff19161491505061281c565b600190505b949350505050565b61282e83836128a2565b61283b600084848461269d565b61287a576040517f08c379a00000000000000000000000000000000000000000000000000000000081526004016128719061424b565b60405180910390fd5b505050565b6000808273ffffffffffffffffffffffffffffffffffffffff163b119050919050565b600073ffffffffffffffffffffffffffffffffffffffff168273ffffffffffffffffffffffffffffffffffffffff1603612911576040517f08c379a000000000000000000000000000000000000000000000000000000000815260040161290890614497565b60405180910390fd5b61291a816124c7565b1561295a576040517f08c379a000000000000000000000000000000000000000000000000000000000815260040161295190614503565b60405180910390fd5b61296660008383612693565b6001600360008473ffffffffffffffffffffffffffffffffffffffff1673ffffffffffffffffffffffffffffffffffffffff16815260200190815260200160002060008282546129b691906137ff565b92505081905550816002600083815260200190815260200160002060006101000a81548173ffffffffffffffffffffffffffffffffffffffff021916908373ffffffffffffffffffffffffffffffffffffffff160217905550808273ffffffffffffffffffffffffffffffffffffffff16600073ffffffffffffffffffffffffffffffffffffffff167fddf252ad1be2c89b69c2b068fc378daa952ba7f163c4a11628f55a4df523b3ef60405160405180910390a4612a7760008383612698565b5050565b508054612a87906135e9565b6000825580601f10612a995750612ab8565b601f016020900490600052602060002090810190612ab79190612c75565b5b50565b828054612ac7906135e9565b90600052602060002090601f016020900481019282612ae95760008555612b37565b82601f10612afa5780548555612b37565b82800160010185558215612b3757600052602060002091601f016020900482015b82811115612b36578254825591600101919060010190612b1b565b5b509050612b449190612c75565b5090565b5080546000825590600052602060002090810190612b669190612c92565b50565b828054612b75906135e9565b90600052602060002090601f016020900481019282612b975760008555612bde565b82601f10612bb057803560ff1916838001178555612bde565b82800160010185558215612bde579182015b82811115612bdd578235825591602001919060010190612bc2565b5b509050612beb9190612c75565b5090565b828054612bfb906135e9565b90600052602060002090601f016020900481019282612c1d5760008555612c64565b82601f10612c3657805160ff1916838001178555612c64565b82800160010185558215612c64579182015b82811115612c63578251825591602001919060010190612c48565b5b509050612c719190612c75565b5090565b5b80821115612c8e576000816000905550600101612c76565b5090565b5b80821115612cb25760008181612ca99190612a7b565b50600101612c93565b5090565b6000604051905090565b600080fd5b600080fd5b60007fffffffff0000000000000000000000000000000000000000000000000000000082169050919050565b612cff81612cca565b8114612d0a57600080fd5b50565b600081359050612d1c81612cf6565b92915050565b600060208284031215612d3857612d37612cc0565b5b6000612d4684828501612d0d565b91505092915050565b60008115159050919050565b612d6481612d4f565b82525050565b6000602082019050612d7f6000830184612d5b565b92915050565b600081519050919050565b600082825260208201905092915050565b60005b83811015612dbf578082015181840152602081019050612da4565b83811115612dce576000848401525b50505050565b6000601f19601f8301169050919050565b6000612df082612d85565b612dfa8185612d90565b9350612e0a818560208601612da1565b612e1381612dd4565b840191505092915050565b60006020820190508181036000830152612e388184612de5565b905092915050565b6000819050919050565b612e5381612e40565b8114612e5e57600080fd5b50565b600081359050612e7081612e4a565b92915050565b600060208284031215612e8c57612e8b612cc0565b5b6000612e9a84828501612e61565b91505092915050565b600073ffffffffffffffffffffffffffffffffffffffff82169050919050565b6000612ece82612ea3565b9050919050565b612ede81612ec3565b82525050565b6000602082019050612ef96000830184612ed5565b92915050565b612f0881612ec3565b8114612f1357600080fd5b50565b600081359050612f2581612eff565b92915050565b60008060408385031215612f4257612f41612cc0565b5b6000612f5085828601612f16565b9250506020612f6185828601612e61565b9150509250929050565b600080600060608486031215612f8457612f83612cc0565b5b6000612f9286828701612f16565b9350506020612fa386828701612f16565b9250506040612fb486828701612e61565b9150509250925092565b600080fd5b600080fd5b600080fd5b60008083601f840112612fe357612fe2612fbe565b5b8235905067ffffffffffffffff81111561300057612fff612fc3565b5b60208301915083600182028301111561301c5761301b612fc8565b5b9250929050565b6000806020838503121561303a57613039612cc0565b5b600083013567ffffffffffffffff81111561305857613057612cc5565b5b61306485828601612fcd565b92509250509250929050565b61307981612d4f565b811461308457600080fd5b50565b60008135905061309681613070565b92915050565b6000602082840312156130b2576130b1612cc0565b5b60006130c084828501613087565b91505092915050565b6130d281612e40565b82525050565b60006020820190506130ed60008301846130c9565b92915050565b60006020828403121561310957613108612cc0565b5b600061311784828501612f16565b91505092915050565b600080fd5b7f4e487b7100000000000000000000000000000000000000000000000000000000600052604160045260246000fd5b61315d82612dd4565b810181811067ffffffffffffffff8211171561317c5761317b613125565b5b80604052505050565b600061318f612cb6565b905061319b8282613154565b919050565b600067ffffffffffffffff8211156131bb576131ba613125565b5b6131c482612dd4565b9050602081019050919050565b82818337600083830152505050565b60006131f36131ee846131a0565b613185565b90508281526020810184848401111561320f5761320e613120565b5b61321a8482856131d1565b509392505050565b600082601f83011261323757613236612fbe565b5b81356132478482602086016131e0565b91505092915050565b6000806040838503121561326757613266612cc0565b5b600061327585828601612e61565b925050602083013567ffffffffffffffff81111561329657613295612cc5565b5b6132a285828601613222565b9150509250929050565b600081519050919050565b600082825260208201905092915050565b6000819050602082019050919050565b600082825260208201905092915050565b60006132f482612d85565b6132fe81856132d8565b935061330e818560208601612da1565b61331781612dd4565b840191505092915050565b600061332e83836132e9565b905092915050565b6000602082019050919050565b600061334e826132ac565b61335881856132b7565b93508360208202850161336a856132c8565b8060005b858110156133a657848403895281516133878582613322565b945061339283613336565b925060208a0199505060018101905061336e565b50829750879550505050505092915050565b600060208201905081810360008301526133d28184613343565b905092915050565b60006133e582612ea3565b9050919050565b6133f5816133da565b82525050565b600060208201905061341060008301846133ec565b92915050565b6000806040838503121561342d5761342c612cc0565b5b600061343b85828601612f16565b925050602061344c85828601613087565b9150509250929050565b600067ffffffffffffffff82111561347157613470613125565b5b61347a82612dd4565b9050602081019050919050565b600061349a61349584613456565b613185565b9050828152602081018484840111156134b6576134b5613120565b5b6134c18482856131d1565b509392505050565b600082601f8301126134de576134dd612fbe565b5b81356134ee848260208601613487565b91505092915050565b6000806000806080858703121561351157613510612cc0565b5b600061351f87828801612f16565b945050602061353087828801612f16565b935050604061354187828801612e61565b925050606085013567ffffffffffffffff81111561356257613561612cc5565b5b61356e878288016134c9565b91505092959194509250565b6000806040838503121561359157613590612cc0565b5b600061359f85828601612f16565b92505060206135b085828601612f16565b9150509250929050565b7f4e487b7100000000000000000000000000000000000000000000000000000000600052602260045260246000fd5b6000600282049050600182168061360157607f821691505b602082108103613614576136136135ba565b5b50919050565b7f4552433732313a20617070726f76616c20746f2063757272656e74206f776e6560008201527f7200000000000000000000000000000000000000000000000000000000000000602082015250565b6000613676602183612d90565b91506136818261361a565b604082019050919050565b600060208201905081810360008301526136a581613669565b9050919050565b7f4552433732313a20617070726f76652063616c6c6572206973206e6f7420746f60008201527f6b656e206f776e6572206e6f7220617070726f76656420666f7220616c6c0000602082015250565b6000613708603e83612d90565b9150613713826136ac565b604082019050919050565b60006020820190508181036000830152613737816136fb565b9050919050565b7f4552433732313a2063616c6c6572206973206e6f7420746f6b656e206f776e6560008201527f72206e6f7220617070726f766564000000000000000000000000000000000000602082015250565b600061379a602e83612d90565b91506137a58261373e565b604082019050919050565b600060208201905081810360008301526137c98161378d565b9050919050565b7f4e487b7100000000000000000000000000000000000000000000000000000000600052601160045260246000fd5b600061380a82612e40565b915061381583612e40565b9250827fffffffffffffffffffffffffffffffffffffffffffffffffffffffffffffffff0382111561384a576138496137d0565b5b828201905092915050565b7f57616c6c65742063616e206f776e206f6e6c792031302063686172616374657260008201527f7300000000000000000000000000000000000000000000000000000000000000602082015250565b60006138b1602183612d90565b91506138bc82613855565b604082019050919050565b600060208201905081810360008301526138e0816138a4565b9050919050565b7f4e487b7100000000000000000000000000000000000000000000000000000000600052603260045260246000fd5b600081905092915050565b60008190508160005260206000209050919050565b60008154613943816135e9565b61394d8186613916565b945060018216600081146139685760018114613979576139ac565b60ff198316865281860193506139ac565b61398285613921565b60005b838110156139a457815481890152600182019150602081019050613985565b838801955050505b50505092915050565b60006139c18284613936565b915081905092915050565b60006139d782612e40565b91507fffffffffffffffffffffffffffffffffffffffffffffffffffffffffffffffff8203613a0957613a086137d0565b5b600182019050919050565b50565b6000613a24600083613916565b9150613a2f82613a14565b600082019050919050565b6000613a4582613a17565b9150819050919050565b7f7769746864726177206661696c65640000000000000000000000000000000000600082015250565b6000613a85600f83612d90565b9150613a9082613a4f565b602082019050919050565b60006020820190508181036000830152613ab481613a78565b9050919050565b7f4552433732313a20696e76616c696420746f6b656e2049440000000000000000600082015250565b6000613af1601883612d90565b9150613afc82613abb565b602082019050919050565b60006020820190508181036000830152613b2081613ae4565b9050919050565b7f4552433732313a2061646472657373207a65726f206973206e6f74206120766160008201527f6c6964206f776e65720000000000000000000000000000000000000000000000602082015250565b6000613b83602983612d90565b9150613b8e82613b27565b604082019050919050565b60006020820190508181036000830152613bb281613b76565b9050919050565b7f43686172206372656174696f6e206973206e6f7420616c6c6f77656400000000600082015250565b6000613bef601c83612d90565b9150613bfa82613bb9565b602082019050919050565b60006020820190508181036000830152613c1e81613be2565b9050919050565b7f4e6f7420656e6f7567682066756e647300000000000000000000000000000000600082015250565b6000613c5b601083612d90565b9150613c6682613c25565b602082019050919050565b60006020820190508181036000830152613c8a81613c4e565b9050919050565b7f43686172206372656174696f6e206973206e6f7420616c6c6f7765642064756560008201527f20746f206d617820636861727320637265617465640000000000000000000000602082015250565b6000613ced603583612d90565b9150613cf882613c91565b604082019050919050565b60006020820190508181036000830152613d1c81613ce0565b9050919050565b600081905092915050565b6000613d3982612d85565b613d438185613d23565b9350613d53818560208601612da1565b80840191505092915050565b6000613d6b8284613d2e565b915081905092915050565b7f43686172616374657220776974682074686174206e616d6520616c726561647960008201527f2065786973747300000000000000000000000000000000000000000000000000602082015250565b6000613dd2602783612d90565b9150613ddd82613d76565b604082019050919050565b60006020820190508181036000830152613e0181613dc5565b9050919050565b7f546f6b656e20646f6573206e6f74206578697374210000000000000000000000600082015250565b6000613e3e601583612d90565b9150613e4982613e08565b602082019050919050565b60006020820190508181036000830152613e6d81613e31565b9050919050565b60008190508160005260206000209050919050565b60008154613e96816135e9565b613ea08186613d23565b94506001821660008114613ebb5760018114613ecc57613eff565b60ff19831686528186019350613eff565b613ed585613e74565b60005b83811015613ef757815481890152600182019150602081019050613ed8565b838801955050505b50505092915050565b7f2e6a736f6e000000000000000000000000000000000000000000000000000000600082015250565b6000613f3e600583613d23565b9150613f4982613f08565b600582019050919050565b6000613f608285613e89565b9150613f6c8284613d2e565b9150613f7782613f31565b91508190509392505050565b7f4f776e61626c653a206e6577206f776e657220697320746865207a65726f206160008201527f6464726573730000000000000000000000000000000000000000000000000000602082015250565b6000613fdf602683612d90565b9150613fea82613f83565b604082019050919050565b6000602082019050818103600083015261400e81613fd2565b9050919050565b7f4552433732313a207472616e736665722066726f6d20696e636f72726563742060008201527f6f776e6572000000000000000000000000000000000000000000000000000000602082015250565b6000614071602583612d90565b915061407c82614015565b604082019050919050565b600060208201905081810360008301526140a081614064565b9050919050565b7f4552433732313a207472616e7366657220746f20746865207a65726f2061646460008201527f7265737300000000000000000000000000000000000000000000000000000000602082015250565b6000614103602483612d90565b915061410e826140a7565b604082019050919050565b60006020820190508181036000830152614132816140f6565b9050919050565b600061414482612e40565b915061414f83612e40565b925082821015614162576141616137d0565b5b828203905092915050565b7f4f776e61626c653a2063616c6c6572206973206e6f7420746865206f776e6572600082015250565b60006141a3602083612d90565b91506141ae8261416d565b602082019050919050565b600060208201905081810360008301526141d281614196565b9050919050565b7f4552433732313a207472616e7366657220746f206e6f6e20455243373231526560008201527f63656976657220696d706c656d656e7465720000000000000000000000000000602082015250565b6000614235603283612d90565b9150614240826141d9565b604082019050919050565b6000602082019050818103600083015261426481614228565b9050919050565b7f4552433732313a20617070726f766520746f2063616c6c657200000000000000600082015250565b60006142a1601983612d90565b91506142ac8261426b565b602082019050919050565b600060208201905081810360008301526142d081614294565b9050919050565b7f4e487b7100000000000000000000000000000000000000000000000000000000600052601260045260246000fd5b600061431182612e40565b915061431c83612e40565b92508261432c5761432b6142d7565b5b828204905092915050565b600061434282612e40565b915061434d83612e40565b92508261435d5761435c6142d7565b5b828206905092915050565b600081519050919050565b600082825260208201905092915050565b600061438f82614368565b6143998185614373565b93506143a9818560208601612da1565b6143b281612dd4565b840191505092915050565b60006080820190506143d26000830187612ed5565b6143df6020830186612ed5565b6143ec60408301856130c9565b81810360608301526143fe8184614384565b905095945050505050565b60008151905061441881612cf6565b92915050565b60006020828403121561443457614433612cc0565b5b600061444284828501614409565b91505092915050565b7f4552433732313a206d696e7420746f20746865207a65726f2061646472657373600082015250565b6000614481602083612d90565b915061448c8261444b565b602082019050919050565b600060208201905081810360008301526144b081614474565b9050919050565b7f4552433732313a20746f6b656e20616c7265616479206d696e74656400000000600082015250565b60006144ed601c83612d90565b91506144f8826144b7565b602082019050919050565b6000602082019050818103600083015261451c816144e0565b905091905056fea2646970667358221220339711d57cab1a826fc43d6bbd833ed11cf70661fc362f5c2e4042f47d6220d764736f6c634300080e0033",
  "linkReferences": {},
  "deployedLinkReferences": {}
}